:020000040800F2
:10000000580400204501000855120008FF0D0008A3
:1000100051120008D9090008B71E000800000000AE
:100020000000000000000000000000004D15000866
:10003000A90C000800000000591300086116000810
:100040005F0100085F0100085F0100085F01000810
:100050005F0100085F0100085F0100085F01000800
:100060005F0100085F0100085F0100085F010008F0
:100070005F0100085F0100085F0100085F010008E0
:100080005F0100085F0100085F0100085F010008D0
:100090005F0100085F0100085F0100085F010008C0
:1000A0005F0100085F0100085F0100085F010008B0
:1000B0005F0100085F0100085F0100085F010008A0
:1000C0005F0100085F0100085F0100085F01000890
:1000D0005F010008E91B00085F0100085F010008DC
:1000E0005F0100085F0100085F0100085F01000870
:1000F0005F0100085F0100085F0100085F01000860
:100100005F0100085F0100085F0100085F0100084F
:100110005F0100085F0100085F0100085F0100083F
:100120005F0100085F0100085F0100085F0100082F
:10013000DFF80CD000F0DAFA004800474528000844
:10014000580400200648804706480047FEE7FEE7BF
:10015000FEE7FEE7FEE7FEE7FEE7FEE7FEE7FEE777
:10016000651600083101000880EA010210B502F0AE
:100170000043400022D04A001FD0010E01EB126163
:10018000C0F35600C2F3560240F4000042F40002ED
:10019000A0FB022000047F39140400D0401C50EA68
:1001A000124001D44000491EC2B20C0604EBD0102C
:1001B000401C4008802A02D003E0002010BD20F03F
:1001C0000100002900DA0020184310BD30B480EA95
:1001D000010202F0004530F0004221F0004013D04F
:1001E00090B1C30DD40DC2F31601C0F31600E41A8A
:1001F00041F4000140F400027D34914201D3641CBB
:1002000000E04900002C02DA30BC002070474FF4B7
:1002100000000023914201D3891A034340084FEAAA
:100220004101F7D151B1914202D14FF0004105E0B7
:1002300002D24FF0010101E06FF0010103EBC45065
:10024000284430BC00F063B8C10F80EAE070084475
:10025000CA079623002100F063B800F0004230F096
:1002600000400AD0C10D01F56071C0F3160042EAEA
:100270000151C208400711437047002001467047F2
:1002800030B50B46014600202022012409E021FA66
:1002900002F59D4205D303FA02F5491B04FA02F563
:1002A0002844151EA2F10102F1DC30BD2DE9F05FFA
:1002B0000546002092469B468846064681464024D5
:1002C0001BE0284641464746224600F030FA534696
:1002D0005A46C01A914110D311461846224600F0E2
:1002E00017FA2D1A67EB01084F462246012000211C
:1002F00000F00EFA17EB00094E41201EA4F1010494
:10030000DFDC484631462A464346BDE8F09F0029D7
:10031000A8BF7047401C490008BF20F0010070478B
:1003200010B4B0FA80FC00FA0CF050EA010404BFEB
:1003300010BC704749B1CCF1200421FA04F411FA41
:100340000CF118BF012121430843A3EB0C01CB1D85
:100350004FEA00614FEA102042BF002010BC7047F6
:1003600000EBC35010440029A4BF10BC7047401CD0
:10037000490008BF20F0010010BC70472DE9FE4F76
:10038000804681EA0300C00F0C46009021F0004136
:1003900023F00045B8EB0200A94105D240462146B2
:1003A00090461C460B46024623F00040104347D0BF
:1003B000270DC7F30A00C3F30A510290401A0190B7
:1003C00040286BDAC3F3130040F4801B0098924678
:1003D00020B10023D2EB030A63EB0B0B01985946C3
:1003E000C0F14002504600F093F906460D465046D3
:1003F0005946019A00F0ABF910EB08006141002466
:1004000087EA115284EAE7731A4340D0009A62B334
:10041000019A012A4FEA075215DC001B61EB020129
:100420004FF0004202EA0752CDE90042001C41F5BC
:10043000801132462B4600F0ABF903B0BDE8F08FD7
:1004400040462146F9E7001B61EB0201001C41F523
:10045000801300185B412018A2F5001747EB030139
:1004600040EAD570B6196D4111E06D084FEA3606C5
:1004700045EAC0754FEA0752001B61EB0201001C00
:1004800041F5801149084FEA3000001951413246C8
:100490002B4603B0BDE8F04F00F06BB90098012285
:1004A00040000023D0EB020263EBE073009821468A
:1004B0004FEAE074B8EB000061EB0401E9E783F078
:1004C00000435BE781F0004158E72DE9FE4F81EAE8
:1004D000030404F0004421F0004100944FF0000BAD
:1004E00023F0004350EA01045ED052EA03045BD0DB
:1004F000C3F30A54C1F30A552C44A4F2F334019413
:10050000A0FB0254C1F3130141F48011C3F31303A0
:1005100043F4801301FB024400FB034E840A970A54
:1005200044EA815447EA8357A4FB076802958D0A81
:1005300005FB07854FEA932C04FB0C542705029D0D
:100540004FEA065847EA1637B5EB08056EEB070C7D
:10055000870E920E47EA811742EA8312A7FB020137
:10056000B6EB0B0164EB00042B0D43EA0C335E1871
:1005700044EB1C50DA465146E7FB0201C5F3130475
:100580004FEA0B3343EA14534FEA0432019C43EA27
:100590000603A4F10C040294009CCDE900B400F021
:1005A000F7F803B0BDE8F08F00200146F9E72DE928
:1005B000F04D81EA030404F0004B21F0004514469D
:1005C0004FF0000A23F0004150EA050220D054EA1F
:1005D00001021DD0C5F30A570246C5F31303C1F348
:1005E0001300C1F30A5640F4801543F48013A7EBBF
:1005F0000608101BD64608F2FD3873EB050002D33F
:1006000008F1010801E092185B41B8F1000F03DA2C
:1006100000200146BDE8F08D00204FF48011064611
:1006200084460EE0171B73EB050705D3121B63EB23
:10063000050306434CEA010C49084FEA30009218C2
:100640005B4150EA0107EDD152EA030012D082EA81
:10065000040083EA0501084305D0101BAB4106D214
:100660000122002306E000224FF0004302E06FF079
:10067000010253101AEB06004CEB085110EB0A0074
:1006800041EB0B01BDE8F04D00F073B8C1F30A5225
:10069000C1F3130140F2FF3341F480119A4202DAB0
:1006A00000200146704740F233439A42A2F233429F
:1006B00002DC524200F03BB800F02AB830B5041E0C
:1006C00071F1000404DB4FF00044404264EB01018F
:1006D000141E73F1000405DB1C464FF00043524228
:1006E00063EB0403994208BF904230BD064C074DAE
:1006F00006E0E06840F0010394E8070098471034F2
:10070000AC42F6D3FFF718FDAC2E0008CC2E000843
:10071000202A04DB203A00FA02F1002070479140C1
:10072000C2F1200320FA03F3194390407047202AB6
:1007300004DB203A21FA02F00021704721FA02F38B
:10074000D040C2F120029140084319467047202A48
:1007500006DBCB17203A41FA02F043EAE07306E0E9
:1007600041FA02F3D040C2F12002914008431946F9
:10077000704710B5141E73F1000408DA401C41F1F3
:10078000000192185B411A4301D120F0010010BD15
:100790002DE9F04D92469B4611B1B1FA81F202E08B
:1007A000B0FA80F220329046FFF7B2FF04460F46BF
:1007B00040EA0A0041EA0B0153465A46084313D067
:1007C000114653EA010019D0C8F140025046FFF724
:1007D000AEFF05460E46504659464246FFF798FF83
:1007E000084305D0012004E020463946BDE8F08DDD
:1007F0000020054346EAE0762C4337430A98630518
:10080000E40AA0EB08000022FD0A44EA47540A303B
:1008100002D500200146E9E7010510196941DDE92B
:10082000084500196941BDE8F04DA2E708B501216E
:10083000102000F0D1FD0120ADF8000010208DF84F
:10084000030003208DF8020069463D4800F033FAAA
:100850000121102000F0C0FD0220ADF800001020A2
:100860008DF8030003208DF802006946344800F03B
:1008700022FA0121102000F0AFFD0420ADF80000A5
:1008800010208DF8030003208DF8020069462C48E3
:1008900000F011FA0121102000F09EFD0820ADF8B3
:1008A000000010208DF8030003208DF80200694637
:1008B000234800F000FA0121102000F08DFD1020E7
:1008C000ADF800008DF8030003208DF802006946A2
:1008D0001B4800F0F0F90121102000F07DFD2020E0
:1008E000ADF8000010208DF8030003208DF8020001
:1008F0006946134800F0DFF90121102000F06CFD7B
:100900004020ADF8000010208DF8030003208DF882
:10091000020069460A4800F0CEF90121102000F0DB
:100920005BFD8020ADF8000010208DF8030003204F
:100930008DF802006946024800F0BDF908BD0000CC
:100940000010014008B50121052000F045FD4020C0
:10095000ADF8000018208DF8030003208DF8020088
:1009600069461B4800F0A7F90121052000F034FD7D
:100970008020ADF8000018208DF8030003208DF8CA
:1009800002006946124800F096F90121092000F0A2
:1009900023FD0120ADF8000018208DF8030003208E
:1009A0008DF8020069460B4800F085F90121092005
:1009B00000F012FD0220ADF8000018208DF80300B1
:1009C00003208DF802006946024800F074F908BD62
:1009D00000080140000C014000BFFEE70146087816
:1009E0004A7840EA022000B2704721B1026842F022
:1009F0000102026004E002684FF6FE731A400260D2
:100A00007047000000B58BB0104800F025F8104882
:100A100000901048019000200290142003900020C4
:100A200004908020059000200690079008904FF4D5
:100A30008050099000200A906946044800F0B6F8FA
:100A400001210248FFF7D1FF0BB000BD5800024062
:100A5000043801404400002001684FF6FE72114046
:100A600001600021016041608160C1604B498842A2
:100A700008D14A490839496841F00F01474A083A04
:100A800051608AE045491431884208D14349083908
:100A9000496841F0F001414A083A51607DE03F4920
:100AA0002831884208D13D490839496841F47061CC
:100AB0003A4A083A516070E038493C31884208D1DE
:100AC00036490839496841F47041344A083A51605E
:100AD00063E032495031884208D1304908394968C9
:100AE00041F470212D4A083A516056E02B49643197
:100AF000884208D129490839496841F47001274AD8
:100B0000083A516049E025497831884208D12349A3
:100B10000839496841F07061204A083A51603CE068
:100B20001F49884206D1011F096841F00F01021FC9
:100B3000116032E01A491431884208D11849091F5E
:100B4000096841F0F001164A121F116025E01449AE
:100B50002831884208D11249091F096841F470619F
:100B60000F4A121F116018E00D493C31884208D12C
:100B70000B49091F096841F47041094A121F1160AD
:100B80000BE007495031884207D10549091F096820
:100B900041F47021024A121F1160704708000240A0
:100BA000080402400146486880B2704710B5002230
:100BB000026847F6F0739A430C6A8B6823430C690A
:100BC00023434C6923438C692343CC6923434C6AF8
:100BD00023438C6A23431A430260CB6843600B684B
:100BE00083604B68C36010BD00B587B0012144F23B
:100BF000040000F0F1FB0121084600F0BDFB28488D
:100C000001F03AF84FF40070ADF8180003208DF8A9
:100C10001A0018208DF81B0006A9224800F04BF896
:100C20004FF48060ADF8180004208DF81B0006A971
:100C30001C4800F040F825208DF8040003208DF8B2
:100C400005008DF8060001208DF8070001A800F0CE
:100C500003FB4FF4E13002900020ADF80C00ADF83A
:100C60000E00ADF81000ADF814000C20ADF8120025
:100C700002A90B4801F0AAF8012240F224410848D9
:100C800001F07FF801224021054800F0ECFF01212E
:100C9000034800F0DCFFFFF7B5FE07B000BD000021
:100CA0000038014000080140704700BF0100A0F17A
:100CB0000100FBD170472DE9F041024600250026D6
:100CC000002000230024002791F803C00CF00F053A
:100CD00091F803C00CF0100CBCF1000F03D091F898
:100CE00002C04CEA050591F800C0BCF1000F31D0FC
:100CF000146800202BE04FF0010C0CFA00F3B1F85F
:100D000000C00CEA03069E4220D183004FF00F0C76
:100D10000CFA03F7BC4305FA03FC4CEA040491F80F
:100D200003C0BCF1280F06D14FF0010C0CFA00FCF7
:100D3000C2F814C00AE091F803C0BCF1480F05D115
:100D40004FF0010C0CFA00FCC2F810C0401C08283F
:100D5000D1D31460B1F800C0BCF1FF0F34DD54688A
:100D600000202EE000F1080C4FF0010808FA0CF307
:100D7000B1F800C00CEA03069E4221D183004FF077
:100D80000F0C0CFA03F7BC4305FA03FC4CEA04040D
:100D900091F803C0BCF1280F05D100F1080C08FA46
:100DA0000CF8C2F8148091F803C0BCF1480F07D1C9
:100DB00000F1080C4FF0010808FA0CF8C2F8108096
:100DC000401C0828CED35460BDE8F0810AB101610F
:100DD00000E04161704710B500F0B8F900F0BEFCCA
:100DE00010BD10B5FFF722FDFFF7ACFD00F06AFC67
:100DF00010BD10B500F068FA00F0E6FC10BD00BFB1
:100E0000FEE7000000B500200F4908600F480068A9
:100E100020F470400D4908600846006840F44050D6
:100E2000086000200A49C1F8AC010520FFF73DFF2A
:100E30000120054908600520FFF737FF002004491D
:100E4000C1F8A80100BD0000A8812142040C0140A6
:100E50000080214208B50121082000F0BDFA4FF4BE
:100E60004060ADF8000010208DF8030003208DF8DD
:100E7000020069460B48FFF71EFF0A48001D006884
:100E800020F470400749091D08600846006840F4D6
:100E9000405008600120044908600449C1F8A801D5
:100EA00008BD0000000C0140AC81214200802142BD
:100EB00000B500200F4908600F48006820F470401A
:100EC0000D4908600846006840F440500860012061
:100ED0000A49C1F8AC010520FFF7E7FE01200549EA
:100EE00008600520FFF7E1FE00200449C1F8A801D1
:100EF00000BD0000A8812142040C01400080214275
:100F000030B5044600231748006820F470401549A6
:100F100008600846006840F400400860002516E0BC
:100F20000020114908600520FFF7BFFE01200F498E
:100F3000C1F8A8015806030E0B487C38006808B1B8
:100F4000581CC3B20520FFF7B0FE681CC5B2082DBF
:100F5000E6DB14B1FFF756FF01E0FFF7A9FF1846E3
:100F600030BD0000040C0140A881214200802142D4
:100F700010B503461548006820F470401349086016
:100F80000846006840F4405008600020104908609E
:100F9000002417E0D8090E49091D08605806030E01
:100FA0000220FFF782FE01200A49C1F8A8010520AE
:100FB000FFF77BFE0020064908600320FFF775FE5F
:100FC000601CC4B2082CE5DB10BD0000040C01401D
:100FD000A88121420080214200B50F48006820F41A
:100FE00070400D4908600846006840F440500860B1
:100FF00001200A4908600A49C1F8A8010520FFF745
:1010000054FE0020054908600520FFF74EFE002031
:101010000349C1F8A80100BD040C0140AC81214284
:101020000080214200B50F48006820F470400D494F
:1010300008600846006840F44050086000200A49F3
:1010400008600A49C1F8AC010520FFF72EFE012017
:10105000054908600549C1F8AC010520FFF725FEE8
:1010600000BD0000040C0140A88121420080214203
:1010700000B500231748006820F470401549086047
:101080000846006840F400400860012012490860EA
:101090000520FFF70AFE0AE0581CC3B2322B03DD1D
:1010A000FFF7C0FF012000BD0520FFF7FEFD0A4845
:1010B000803800680028EFD101200749091F086027
:1010C0000520FFF7F2FD00200449C1F8A80100BF88
:1010D000E9E70000040C0140AC812142008021427C
:1010E0002DE9F0410546884616461F460024FFF7C5
:1010F00073FF6906080EFFF73BFFFFF7B9FF404695
:10110000FFF736FFFFF7B4FFFFF766FF012101EBA2
:101110004501C8B2FFF72CFFFFF7AAFF00BF0DE0A3
:10112000701EA04204D00120FFF7EAFE385503E00C
:101130000020FFF7E5FE3855601CC4B2B442EFDB77
:10114000FFF770FF2046BDE8F081000008B50121DF
:10115000092000F041F98020ADF8000018208DF83A
:10116000030003208DF8020069461448FFF7A3FD31
:101170000121102000F030F94FF48070ADF800002C
:1011800010208DF8030003208DF8020069460C48FA
:10119000FFF791FD0121102000F01EF94FF40070BF
:1011A000ADF8000010208DF8030003208DF8020038
:1011B00069460348FFF77FFD08BD0000000C0140B1
:1011C0000010014070B504460D4616462246102117
:1011D0000648FFF7FBFD2A4620210448FFF7F6FDED
:1011E0003146034800F0A9FC70BD0000001001402A
:1011F0000004004070B504460D4616462246012103
:101200000648FFF7E3FD2A4602210448FFF7DEFD0A
:101210003146034800F08DFC70BD00000010014015
:101220000004004010B50446012211020648FFF7F1
:10123000CDFD012251020448FFF7C8FD21460348B5
:1012400000F079FC10BD00000010014000080040D3
:1012500000BFFEE77047000070B5002100230F2299
:10126000C47804B3154C246804F4E064C4F5E06465
:10127000210AC1F10403CA40447804FA03F18478D6
:101280001440214309010E4C0678A155047804F05E
:101290001F050124AC4005786D11AD0005F1E02576
:1012A000C5F8004109E0047804F01F050124AC40B2
:1012B000044D0678761145F8264070BD0CED00E02F
:1012C00000E400E080E100E008B50121052000F025
:1012D00083F80120ADF8000018208DF803000320EA
:1012E0008DF8020069461B48FFF7E5FC0121052047
:1012F00000F072F80220ADF8000018208DF803000D
:1013000003208DF8020069461248FFF7D4FC012142
:10131000052000F061F80420ADF8000018208DF8D9
:10132000030003208DF8020069460A48FFF7C3FC5A
:101330000121052000F050F80820ADF80000182029
:101340008DF8030003208DF8020069460148FFF77D
:10135000B2FC08BD000801407047000070B50446AB
:101360000D462146034800F0E4FBA9B2014800F015
:10137000E2FB70BD000C004029B1064A52690243ED
:10138000044B5A6104E0034A52698243014B5A619B
:10139000704700000010024029B1064AD26902439A
:1013A000044BDA6104E0034AD2698243014BDA61FB
:1013B000704700000010024029B1064A126902433A
:1013C000044B1A6104E0034A12698243014B1A611B
:1013D000704700000010024029B1064A926902439A
:1013E000044B9A6104E0034A92698243014B9A617B
:1013F000704700000010024029B1064AD26802433B
:10140000044BDA6004E0034AD2688243014BDA609D
:10141000704700000010024030B500210022002477
:1014200000232D4D6D6805F00C0121B1042905D074
:10143000082923D105E0294D056022E0274D0560EC
:101440001FE0254D6D6805F47012234D6D6805F49D
:101450008034022505EB92421CB9214D55430560AD
:101460000BE01D4D6D6805F400351DB11C4D554355
:10147000056002E0194D5543056002E0174D056017
:1014800000BF00BF144D6D6805F0F0010909154D4E
:101490006B5C0568DD4045600F4D6D6805F4E061EB
:1014A000090A104D6B5C4568DD4085600A4D6D682A
:1014B00005F46051C90A0B4D6B5C4568DD40C560A1
:1014C000054D6D6805F44041890B074D6B5CC5689F
:1014D000B5FBF3F5056130BD0010024000127A0043
:1014E00000093D00140000202400002070B50446CF
:1014F0000D461646224640210648FFF767FC2A465D
:1015000080210448FFF762FC3146034800F017FBD6
:1015100070BD0000001001400004004070B504469A
:101520000D461646224604210648FFF74FFC2A4680
:1015300008210448FFF74AFC3146034800F0FBFA53
:1015400070BD00000010014000040040704710B55D
:1015500000F002F810BD00000CB5002001900090D2
:101560003348006840F480303149086000BF30489B
:10157000006800F4003000900198401C0190009831
:1015800018B90198B0F5A06FF1D12948006800F4AE
:10159000003010B10120009001E000200090009880
:1015A000012843D12348006840F010002149086019
:1015B0000846006820F0030008600846006840F014
:1015C000020008601A4840681949486008464068A7
:1015D00048600846406840F48060486008464068BB
:1015E00020F47C1048600846406840F4E8104860E9
:1015F0000846006840F08070086000BF0C48006832
:1016000000F000700028F9D00948406820F003007D
:10161000074948600846406840F00200486000BF43
:101620000348406800F00C000828F9D10CBD000008
:101630000010024000200240042808D14FF0E021B1
:10164000096941F004014FF0E022116107E04FF019
:10165000E021096921F004014FF0E0221161704797
:101660007047000010B51348006840F001001149B0
:10167000086008464068104908400E49486008461E
:1016800000680E4908400B4908600846006820F4CD
:10169000802008600846406820F4FE0048604FF44F
:1016A0001F008860FFF753FF4FF000600449086097
:1016B00010BD0000001002400000FFF8FFFFF6FE22
:1016C00008ED00E000B587B001210220FFF764FEBD
:1016D00001210220FFF760FE6320ADF814004720CF
:1016E000ADF810000020ADF81600ADF812008DF82E
:1016F000180004A9184800F025FA6020ADF8000091
:101700000120ADF802000020ADF80800694612483B
:1017100000F0B4F80821104800F0FCF869460E48C3
:1017200000F002F908210C4800F050F969460A4817
:1017300000F05AF90821084800F0A6F96946064861
:1017400000F0ACF90821044800F0E6F90121024854
:1017500000F088F807B000BD0004004000B587B075
:1017600001210420FFF718FE01210220FFF714FEDB
:101770006320ADF814004720ADF810000020ADF84C
:101780001600ADF812008DF8180004A90D4800F0FD
:10179000D9F96020ADF800000120ADF8020000206A
:1017A000ADF80800ADF806006946064800F0BCF840
:1017B0000821044800F00AF90121024800F052F81B
:1017C00007B000BD0008004000B587B00121082027
:1017D000FFF7E2FD01210820FFF7DEFDC720ADF88D
:1017E000140041F61F40ADF810000020ADF81600BF
:1017F000ADF812008DF8180004A9194800F0A2F9FC
:101800006020ADF800000120ADF802000020ADF826
:1018100008006946124800F031F80821104800F02D
:1018200079F869460E4800F07FF808210C4800F06E
:10183000CDF869460A4800F0D7F80821084800F0BA
:1018400023F96946064800F029F90821044800F008
:1018500063F90121024800F005F807B000BD00005F
:10186000000C004021B1028842F00102028004E035
:1018700002884FF6FE731A400280704770B500244C
:1018800000220023058C4FF6FE7635400584028C3D
:101890008388048B4FF68F752C40B51E2C400D8825
:1018A0002C43751E2A400D892A434D882A43144D26
:1018B000A8420BD0134DA84208D0134DA84205D022
:1018C000124DA84202D0124DA84213D14FF6F7751F
:1018D0002A404D892A434FF6FB752A408D882A43BA
:1018E0004FF6FF652B404FF6FF552B408D892B435C
:1018F000CD892B4383800483CD888586028470BD87
:10190000002C0140003401400040014000440140EF
:10191000004801400A460021018B4FF6F773194039
:10192000114301837047000070B50024002200239A
:10193000058C4FF6EF7635400584028C8388048B46
:1019400048F6FF752C404FF6FF452C400D884FF6AA
:10195000FF7606EA05252C434FF6DF752A400D89F0
:1019600006EA05152A434D8806EA05152A43154D52
:10197000A84202D0144DA8421DD14FF67F752A40CF
:101980004D894FF6FF7606EA05152A434FF6BF75D7
:101990002A408D8806EA05152A434FF6FF352B406D
:1019A0004FF2FF752B408D8906EA85052B43CD89C3
:1019B00006EA85052B4383800483CD88058702844E
:1019C00070BD0000002C0140003401400A46002197
:1019D000018B4FF2FF7319404FF6FF7303EA0223A6
:1019E000194301837047000070B5002400220023D2
:1019F000058C4FF6FF6635400584028C8388848B06
:101A00004FF68F752C404FF6FC752C400D882C43FB
:101A10004FF6FF552A400D894FF6FF7606EA052559
:101A20002A434D8806EA05252A43154DA84202D0CF
:101A3000144DA8421DD14FF2FF752A404D894FF633
:101A4000FF7606EA05252A434FF6FF352A408D88A2
:101A500006EA05252A434EF6FF752B404DF6FF7525
:101A60002B408D8906EA05152B43CD8906EA05151D
:101A70002B4383808483CD888587028470BD0000DA
:101A8000002C0140003401400A460021818B4FF6B2
:101A9000F7731940114381837047000070B500222D
:101AA00000230024058C4EF6FF7635400584038C18
:101AB0008488828B48F6FF752A404FF6FF452A40FE
:101AC0000D884FF6FF7606EA05252A434DF6FF7589
:101AD0002B400D8906EA05352B434D8806EA05356E
:101AE0002B430B4DA84202D00A4DA84208D14BF619
:101AF000FF752C408D894FF6FF7606EA85152C433D
:101B000084808283CD88A0F84050038470BD00009B
:101B1000002C0140003401400A460021818B4FF225
:101B2000FF7319404FF6FF7303EA022319438183C1
:101B30007047818670470187704781877047A0F89A
:101B400040107047002202881D4B98420ED01D4B5A
:101B500098420BD0B0F1804F08D01B4B984205D073
:101B60001A4B984202D01A4B984204D14FF68F7309
:101B70001A404B881A43174B984207D0164B98428D
:101B800004D04FF6FF431A40CB881A4302808B885B
:101B900083850B8803850A4B98420BD0094B9842EA
:101BA00008D00E4B984205D00D4B984202D00D4BF9
:101BB000984201D10B7A038601238382704700008B
:101BC000002C0140003401400004004000080040A7
:101BD000000C004000100040001400400040014094
:101BE000004401400048014010B540F224410C4837
:101BF00000F09DF898B10A4800F054F90948FEF742
:101C0000D1FFC0F114000849088040F22441044883
:101C100000F00EF8FEF7F6FE01200449087010BD32
:101C200000380140580002403800002037000020F2
:101C300010B50022002340F66A14A14200D100BF73
:101C40000A1201249440A3B2DC43048010BD21B1E8
:101C5000828942F40052828104E082894DF6FF734A
:101C60001A40828170471AB1838A0B43838202E053
:101C7000838A8B438382704710B504462048844290
:101C800009D101218803FFF7B7FB00214FF4804001
:101C9000FFF7B2FB32E01B48844209D1012148041E
:101CA000FFF78AFB00214FF40030FFF785FB25E0AA
:101CB0001548844209D101218804FFF77DFB0021EA
:101CC0004FF48020FFF778FB18E01048844209D1D8
:101CD0000121C804FFF770FB00214FF40020FFF73B
:101CE0006BFB0BE00A48844208D101210805FFF78D
:101CF00063FB00214FF48010FFF75EFB10BD000076
:101D0000003801400044004000480040004C0040C2
:101D10000050004002460020B1F5007F00D100BF16
:101D200013880B400BB1012000E00020704770B514
:101D30000246002400230025002040F66A16B14226
:101D400000D100BFC1F3421501F01F03012606FABE
:101D500003F3012D02D19689334006E0022D02D112
:101D6000168A334001E0968A33400C12012606FAA7
:101D700004F41688344013B10CB1012000E00020B7
:101D800070BDF0B50346002400260025002040F673
:101D90006A17B94200D100BF1846C1F3421401F0DE
:101DA0001F06012707FA06F5012C01D10C3004E0CB
:101DB000022C01D1103000E014301AB107682F4313
:101DC000076002E00768AF430760F0BD2DE9F04708
:101DD00086B005460E460024A24600BFA146002755
:101DE000B08900B100BF2F462C8A4CF6FF7004402A
:101DF000F08804432C82AC894EF6F3100440B0887E
:101E000031890843718908430443AC81AC8A4FF699
:101E1000FF400440B0890443AC8201A8FFF7FCFAFC
:101E20001F48874202D1DDF810A001E0DDF80CA0C8
:101E3000A88900F4004040B10AEBCA0000EB0A1088
:101E400031684900B0FBF1F807E00AEBCA0000EB8B
:101E50000A1031688900B0FBF1F86420B8FBF0F09B
:101E600004012009642101FB1089A88900F40040C5
:101E700040B1322000EBC900B0FBF1F000F00700E8
:101E8000044308E0322000EB09106421B0FBF1F0BC
:101E900000F00F0004432C8106B0BDE8F08700007D
:101EA0000038014001468888C0F308007047C1F33C
:101EB00008028280704700BFFEE700000FB4054BA8
:101EC00010B503A9044A029800F0CAF810BC5DF8E6
:101ED00014FB0000212800084000002002E008C890
:101EE000121F08C1002AFAD170477047002001E094
:101EF00001C1121F002AFBD1704700002DE9FF5FCE
:101F0000DDE90220010DDDF838B0024318D044F6B7
:101F10001050A1F2FF3141430D140F98012820D039
:101F2000A5EB0B00401C5FEA000A4FF00004474E8F
:101F3000DFF81C91A046504616D5CAF1000728E0EC
:101F40000F98012443A2012808D0002100980F9B7C
:101F5000C0E90021C0E90243BDE8FF9F6FEA0B0121
:101F6000F4E7CBF10000DEE7074612E0F80707D000
:101F70002246334640464946FEF7A7FA8046894640
:101F80002246334610461946FEF79FFA04460E468F
:101F90007F10002FEAD1DDE90201BAF1000F4246BD
:101FA0004B4602DAFEF791FA01E0FEF700FB044629
:101FB0000E460022284BFEF781FB03D84FF0FF307E
:101FC000014607E00022254B20463146FEF7D6F9B0
:101FD000FEF75CFB102409E0002C0ADB0A22002338
:101FE000FEF764F9019B30321A55641E50EA010273
:101FF000F2D1641C019AC4F1110314440F9A012A0E
:1020000003D0012208430DD10AE0084304D0002088
:102010004FF0110B0F9080E7A3EB0B056D1E0DE049
:102020005B4504DD4FF0000205F1010504E003DA31
:102030004FF00002A5F10105002AECD000980F999D
:10204000C0E90231C0E9004586E7000000002440F5
:102050000000F03F300000000000F0430000E03FCF
:102060002DE9FF4F95B09B468946064600250FE2B5
:10207000252877D100242746F84A0121059400E05D
:10208000044316F8013F203B01FA03F01042F7D158
:1020900030782A2811D06FF02F033078A0F1300269
:1020A000092A16D8059A44F0020402EB820203EBD7
:1020B00042021044761C0590EFE759F8042B059274
:1020C000002A03DA504244F40054059044F002041C
:1020D000761C30782E2816D116F8010F44F004042F
:1020E0002A280DD06FF02F023078A0F13003092B91
:1020F00009D807EB870302EB4303C718761CF3E705
:1021000059F8047B761C30786C280FD006DC4C28FC
:1021100017D068280DD06A2814D104E0742810D094
:102120007A280FD10DE044F400140AE044F480143E
:1021300001E044F440147278824202D104F5801424
:10214000761C761C307866280BD013DC582877D0A4
:1021500009DC002875D04528F6D04628F4D0472859
:102160001AD19DE118E0632835D0642879D065281C
:1021700012D195E1702873D008DC6728F1D0692866
:102180006FD06E280DD06F2806D1B5E073282CD003
:10219000752875D0782874D05A46179990476D1CC9
:1021A00075E1C4F30250022809D003280DD0D9F8F4
:1021B000001004280DD00D6009F1040967E1D9F879
:1021C0000010EA17C1E90052F6E7D9F800100D80B7
:1021D000F2E70D70F0E719F8041B8DF800100020ED
:1021E0008DF80100EA46012003E059F804AB4FF0F6
:1021F000FF3061074FF0000102D40DE008F101014A
:102200008846B9420FDA8045F8DB1AF80810002931
:10221000F4D108E008F1010188468142FADB1AF89E
:1022200008100029F6D105985B46A0EB0807214667
:102230003846179A00F094FA284400EB080507E0A6
:102240004DE029E10DE01AF8010B5A461799904725
:10225000B8F10108F7D25B4621463846179A13E1D8
:1022600042E00A220092C4F302524FF0000A022A0E
:1022700008D059F804CB032A4FEAEC710AD00DE0DC
:1022800029E02AE009F1070121F00702F2E802C182
:10229000914609E00FFA8CFC4FEAEC71042A03D155
:1022A0004FFA8CFC4FEAEC71002907DA0A4600214C
:1022B000DCF1000C61EB02012D2202E0220504D5C5
:1022C0002B228DF80420012203E0E20701D0202216
:1022D000F7E7904659E00A2102E010220DE01021B4
:1022E0004FF0000A00910BE010224FF0000A44F07A
:1022F00004040827009203E008224FF0000A00922D
:10230000C4F30252022A05D059F804CB0021032A53
:1023100008D009E009F1070121F00702F2E802C143
:10232000914605E01FFA8CFC042A01D10CF0FF0C49
:102330004FF00008220728D5702806D0009B83F0B4
:10234000100353EA0A0305D00EE040228DF8042062
:10235000012208E05CEA010206D030228DF8042058
:102360008DF8050002229046009B83F0080353EA93
:102370000A030AD15CEA010201D1620705D53022C5
:102380008DF804204FF001087F1E582804D034A097
:1023900003900EA802900DE036A0F9E75346604680
:1023A000009AFDF783FF84460398825C0298401EE2
:1023B000029002705CEA0100F0D1029806A9081AA6
:1023C00000F1200A600702D524F4803400E00127E0
:1023D000574502DDA7EB0A0000E0002000EB0A01F0
:1023E000009005984144401A0590E00306D45B46EE
:1023F0002146179A059800F0B3F90544002706E036
:1024000001A85A46C05D179990476D1C7F1C47452F
:10241000F6DBE0030CD55B462146179A059800F0E1
:102420009FF9054404E030205A46179990476D1CE7
:102430000099481E00900029F5DC08E002980299F6
:102440005A460078491C0291179990476D1CBAF1C1
:102450000001AAF1010AF1DC65E100000928010090
:10246000303132333435363738396162636465660A
:1024700000000000303132333435363738394142CC
:10248000434445460000000000F058F90544761C1E
:10249000307800287FF4ECAD19B02846BDE8F08F05
:1024A000620700D4062709F1070222F0070CFCE8B6
:1024B0000223E14603F000485FEA080C02D00FF265
:1024C000702C0DE05FEA045C02D50FF2682C07E087
:1024D0005FEAC47C02D00FF2602C01E0AFF2700C16
:1024E0004FF0FF3823F00043CDF850C065280CD0E2
:1024F00006DC452809D046281DD047283DD13DE0BF
:10250000662818D067287ED138E00021112F01DB22
:10251000112000E0781CCDE9000106A90EA8FFF704
:10252000EDFCDDE90F010E9A03910021009207F105
:10253000010A04914DE04FF000400097CDE90110F1
:1025400006A90EA8FFF7DAFCDDE90F0203920E9B45
:1025500011990022DDF80CA00093049211B9791CA6
:1025600000EB010AB7EB0A0004D4C0F1FF3007F119
:10257000010A0490AAEB0700019044E0012F00DA61
:1025800001270021112F01DD112000E03846CDE99F
:10259000000106A90EA8FFF7B1FCDDE90F010E9AB4
:1025A0000391002104910092BA4621070CD40399AB
:1025B000514500DA8A46BAF1010F05DD009AAAF109
:1025C0000101515C302908D0B84202DA10F1040F41
:1025D00006DA0121CDE9011015E0AAF10101E9E7D0
:1025E000002805DC049901440491AAEB000102E0F3
:1025F000411C514500DD8A460499401A401C019057
:102600004FF000400290200704D40198504501DBB0
:10261000CDF8048000208DF84F0002980DF14F078F
:10262000B0F1004F25D02B200E9002984FF00208F9
:1026300000280CDA404202902D200E9007E00A217B
:102640000298FDF71DFE3031029007F8011DB8F128
:102650000001A8F10108F2DC02980028EFD1791EF0
:102660000E980870307800F0200040F0450007F820
:10267000020D12A8C01B00F107081498007800B1E1
:10268000012000EB0A01019801EBE071059841443B
:10269000401A401E0590E00306D45B462146179A77
:1026A000059800F05DF805441498007818B15A4672
:1026B000179990476D1CE00324D55B462146179A75
:1026C000059800F04DF805441CE00498002807DB4D
:1026D000DDE90301884203DD0098405C179901E0C1
:1026E000179930205A469047049805F10105401C7F
:1026F00004900198401E019004D12E205A4617994B
:1027000090476D1CBAF10001AAF1010ADDDC05E079
:1027100017F8010B5A46179990476D1CB8F1000144
:10272000A8F10108F4DC5B462146179A0598ABE650
:102730002D0000002B000000200000002DE9F041DA
:10274000044600251E461746880404D405E0394691
:102750002020B0476D1C641EF9D52846BDE8F081E5
:102760002DE9F041044600251E469046C80301D5D8
:10277000302700E02027880404D505E0414638468C
:10278000B0476D1C641EF9D52846BDE8F0810000F5
:1027900010B56FF00400FEF74FFF0A4800680A49C1
:1027A000B0FBF1F0094908700846007800EB4001E1
:1027B000C1EBC0104FF6FF7101EAC0000449088068
:1027C00010BD00000000002000127A003A00002036
:1027D0003C0000200146114A12884A434FF0E02392
:1027E0005A6100229A611A46126942F001021A6186
:1027F00000BF4FF0E022106900F001021AB100F4AE
:102800008032002AF5D04FF0E022126922F0010256
:102810004FF0E0231A6100229A6170473C000020CB
:1028200070B504460D46E1B20548FFF740FB00BF16
:1028300080210348FFF76EFA0028F9D0204670BDCA
:1028400000380140BAB0FFF7A3FFFEF703FBFEF725
:10285000C8FAFEF7CEFAFEF7C7F9FEF7BCFA102168
:102860000F20FEF77BFD0020FEF7DCFC0022114666
:102870000120FEF7BFFC002201210846FEF74EFEB4
:10288000002211460120FEF79DFC0022012108468E
:10289000FEF72CFE002003E00021F04A1154401CFA
:1028A0001028F9DBD8E16420FFF794FF32AB18223F
:1028B00034215020FEF714FC32A8FEF78FF80646AC
:1028C000FDF7C2FC05464FF08E41FDF77FFC044644
:1028D0004FF08341FDF748FC2F900DF1CA00FEF741
:1028E0007DF80646FDF7B0FC04464FF08E41FDF73B
:1028F0006DFC05464FF08341FDF736FC309033A860
:10290000FEF76CF80646FDF79FFC05464FF08E413A
:10291000FDF75CFC04464FF08341FDF725FC319048
:102920000DF1CE00FEF75AF80646FDF78DFC044681
:102930004FF08E41FDF74AFC0546C949FDF714FCEE
:102940002C9034A8FEF74AF80646FDF77DFC0546B4
:102950004FF08E41FDF73AFC0446C149FDF704FCF7
:102960002D900DF1D200FEF739F80646FDF76CFC0C
:1029700005464FF08E41FDF729FC0446B849FDF7A6
:10298000F3FB2E9035A8FEF729F80446FDF75CFC12
:1029900029900DF1D600FEF721F80446FDF754FC0E
:1029A0002A9036A8FEF71AF80446FDF74DFC2B9046
:1029B0000DF1DA00FEF712F80646FDF745FC054674
:1029C0004FF08E41FDF702FC0446A649FDF7CCFB13
:1029D000269037A8FEF702F80646FDF735FC0546B7
:1029E0004FF08E41FDF7F2FB04469E49FDF7BCFB1C
:1029F00027900DF1DE00FDF7F1FF0646FDF724FC00
:102A000004464FF08E41FDF7E1FB05469549FDF781
:102A1000ABFB28902898FDF720FC04460D4627982C
:102A2000FDF71BFC06460F462698FDF716FC804670
:102A300089462B98FDF711FC82468B462A98FDF7B4
:102A40000CFCCDE924012998FDF707FCCDE9220112
:102A50002E98FDF702FCCDE920012D98FDF7FDFB36
:102A6000CDE91E012C98FDF7F8FBCDE91C0131984A
:102A7000FDF7F3FBCDE91A013098FDF7EEFBCDE948
:102A800018012F98FDF7E9FBCDE90EABCDE91089D0
:102A9000CDE91267CDE91445CDE91601DDE9240140
:102AA000CDE90C01DDE92201CDE90A01DDE92001D2
:102AB000CDE90801DDE91E01CDE90601DDE91C01D2
:102AC000CDE90401DDE91A01CDE90201DDE91801D2
:102AD000CDE900016448DDE91623FFF7EFF963480B
:102AE0000078002876D062A0FFF7E8F95B4800780C
:102AF000634908705948407862490870574880789F
:102B0000614908705548C078604908705348007999
:102B10005F490870514840795E4908704F48807994
:102B20005D4908704D48C0795C4908704B48007A8F
:102B30005B4908704948407A5A4908704748807A8A
:102B4000594908704548C07A584908704348007B85
:102B5000574908704148407B564908703F48807B80
:102B6000554908700020414908704548017853A034
:102B7000FFF7A4F94348017857A0FFF79FF94248AF
:102B800001785CA0FFF79AF94048017860A0FFF750
:102B900095F93F48017865A0FFF790F93D48017825
:102BA00069A0FFF78BF93C4801786EA0FFF786F922
:102BB0003A48017872A0FFF781F93948017877A087
:102BC000FFF77CF9374801787BA0FFF777F93648A3
:102BD000017800E016E07FA0FFF770F93348017834
:102BE00083A0FFF76BF93248017888A0FFF766F9F8
:102BF000304801788CA0FFF761F92F48017890A048
:102C0000FFF75CF9204802781E4801781C480078DC
:102C1000FEF7F0FA1F4802781D4801781B4800783B
:102C2000FEF77CFC1E4802781C4801781A480078A0
:102C3000FEF7C8FA1D4802781B4801781948007849
:102C4000FEF754FC1B48017819480078FEF786FB14
:102C500019480078FEF7E6FA25E600004400002057
:102C60000000FA4400003443582E000837000020CA
:102C700066696C6C20696E20646174610A000000F2
:102C80002A0000202B0000202C0000202D00002016
:102C90002E0000202F0000203000002031000020F6
:102CA00032000020330000203400002035000020D6
:102CB0002800002029000020360000206C65667482
:102CC00046726F6E745F454E2076616C7565203D6F
:102CD000202564200A0000006C65667446726F6EE1
:102CE000745F4449522076616C7565203D202564EF
:102CF000200A00006C65667446726F6E745F7077B0
:102D00006D2076616C7565203D202564200A0000E9
:102D1000726967687446726F6E745F454E207661A3
:102D20006C7565203D202564200A00007269676883
:102D30007446726F6E745F4449522076616C75659B
:102D4000203D202564200A00726967687446726F0E
:102D50006E745F70776D2076616C7565203D2025FF
:102D600064200A006C6566744261636B5F454E20A7
:102D700076616C7565203D202564200A0000000006
:102D80006C6566744261636B5F4449522076616C86
:102D90007565203D202564200A0000006C6566747E
:102DA0004261636B5F70776D2076616C7565203D65
:102DB000202564200A00000072696768744261631C
:102DC0006B5F454E2076616C7565203D2025642043
:102DD0000A00000072696768744261636B5F44496E
:102DE000522076616C7565203D202564200A000024
:102DF00072696768744261636B5F70776D2076619A
:102E00006C7565203D202564200A0000706974639C
:102E1000685F616E676C652076616C7565203D202A
:102E20002564200A00000000726F6C6C5F616E67A1
:102E30006C652076616C7565203D202564200A0054
:102E40006C696768745F70776D2076616C7565205A
:102E50003D202564200A0000307835303A2020617A
:102E60003A252E336620252E336620252E33662004
:102E7000773A252E336620252E336620252E33669D
:102E80002020683A252E306620252E306620252EFB
:102E900030662020416E676C653A252E336620250A
:102EA0002E336620252E3366200D0A00CC2E000816
:102EB0000000002044000000DC1E0008102F000865
:102EC0004400002014040000EC1E000800A24A0484
:102ED00000000000000000000102030406070809CA
:102EE00000000000010203040102030406070809B0
:102EF000020406080F0F00000000000000000000A0
:102F000000000000000000000000000000000000C1
:0400000508000145A9
:00000001FF
