:020000040800F2
:10000000E806002045010008D10E00080B0D00088D
:10001000CD0E0008E5070008E71B000800000000FF
:10002000000000000000000000000000E1110008D6
:10003000C10B000800000000D50F0008F5120008F1
:100040005F0100085F0100085F0100085F01000810
:100050005F0100085F0100085F0100085F01000800
:100060005F0100085F0100085F0100085F010008F0
:100070005F0100085F0100085F0100085F010008E0
:100080005F0100085F0100085F0100085F010008D0
:100090005F0100085F0100085F0100085F010008C0
:1000A0005F0100085F0100085F0100085F010008B0
:1000B0005F0100085F0100085F0100085F010008A0
:1000C0005F0100085F0100085F0100085F01000890
:1000D0005F010008051900085F0100085F010008C2
:1000E0005F0100085F0100085F0100085F01000870
:1000F0005F0100085F0100085F0100085F01000860
:100100005F0100085F0100085F0100085F0100084F
:100110007D1800085F0100085F0100085F0100080A
:100120005F0100085F0100085F0100085F0100082F
:10013000DFF80CD000F0F8F800480047351E000842
:10014000E80600200648804706480047FEE7FEE72D
:10015000FEE7FEE7FEE7FEE7FEE7FEE7FEE7FEE777
:10016000F91200083101000880EA010210B502F01E
:100170000043400022D04A001FD0010E01EB126163
:10018000C0F35600C2F3560240F4000042F40002ED
:10019000A0FB022000047F39140400D0401C50EA68
:1001A000124001D44000491EC2B20C0604EBD0102C
:1001B000401C4008802A02D003E0002010BD20F03F
:1001C0000100002900DA0020184310BD30B480EA95
:1001D000010202F0004530F0004221F0004013D04F
:1001E00090B1C30DD40DC2F31601C0F31600E41A8A
:1001F00041F4000140F400027D34914201D3641CBB
:1002000000E04900002C02DA30BC002070474FF4B7
:1002100000000023914201D3891A034340084FEAAA
:100220004101F7D151B1914202D14FF0004105E0B7
:1002300002D24FF0010101E06FF0010103EBC45065
:10024000284430BC00F038B8C10F80EAE0700844A0
:10025000CA079623002100F038B800F0004220F0D1
:100260000040C10DC0F3160040F400007F2901DA00
:1002700000207047962903DCC1F19601C84001E0D7
:1002800096398840002AF4D04042704730B50B467A
:10029000014600202022012409E021FA02F59D42B6
:1002A00005D303FA02F5491B04FA02F52844151E8A
:1002B000A2F10102F1DC30BD0029A8BF7047401C4B
:1002C000490008BF20F00100704710B4B0FA80FC6C
:1002D00000FA0CF050EA010404BF10BC704749B1A9
:1002E000CCF1200421FA04F411FA0CF118BF012119
:1002F00021430843A3EB0C01CB1D4FEA00614FEAF9
:10030000102042BF002010BC704700EBC3501044C7
:100310000029A4BF10BC7047401C490008BF20F052
:10032000010010BC70470000064C074D06E0E06875
:1003300040F0010394E8070098471034AC42F6D32C
:10034000FFF7FAFE702100089021000821B18268B1
:1003500042F00102826003E0826822F001028260C2
:10036000704721B1826842F48072826003E0826843
:1003700022F4807282607047014600208A6802F091
:1003800004020AB1012000E000207047014600206D
:100390008A6802F008020AB1012000E000207047DC
:1003A00030B502460020002350680F4C20400D79E4
:1003B0000C6844EA05242043506090680B4C2040B0
:1003C000D1E902542C434D7944EA4504204390601E
:1003D000D06A20F470000C7C641EE4B2234340EA2F
:1003E0000350D06230BD0000FFFEF0FFFDF7F1FFCB
:1003F000F0B504460D4600200021092D11DDE0680E
:10040000A5F10A0606EB4607072606FA07F1884318
:10041000A5F10A0606EB460603FA06F10843E0607A
:100420000CE0206905EB4507072606FA07F188432B
:1004300005EB450603FA06F108432061072A0FDAA7
:10044000606B561E06EB86071F2606FA07F18843E7
:10045000561E06EB860605FA06F10843606322E0A5
:100460000D2A0FDA206BD61F06EB86071F2606FA29
:1004700007F18843D61F06EB860605FA06F1084306
:10048000206310E0E06AA2F10D0606EB86071F2646
:1004900006FA07F18843A2F10D0606EB860605FA77
:1004A00006F10843E062F0BD816841F00801816017
:1004B000704721B1826842F4A002826003E0826842
:1004C00022F4A00282607047816841F004018160DB
:1004D0007047000008B50121102000F0C7FD3F2043
:1004E000ADF8000000208DF803006946014800F0D7
:1004F00068FB08BD0010014010B5FFF7EBFF00F0EE
:1005000001F810BD00B591B00121084600F07EFD54
:100510000121480200F0AAFD444800F029FA4448AD
:10052000069044480790002008900620099000207B
:100530000A9080200B9040000C9080000D902020AD
:100540000E9000020F900020109006A9374800F08E
:10055000B9FA0121354800F0D5F9002001900120B9
:100560008DF808008DF809004FF4602003900020FA
:10057000049006208DF8140001A92D484C38FFF78F
:100580000FFF4FF4404000F035FD052301220A2102
:1005900027484C38FFF72CFF052302220B21244863
:1005A0004C38FFF725FF052303220C2120484C3847
:1005B000FFF71EFF052304220D211D484C38FFF7CD
:1005C00017FF05231A460E2119484C38FFF710FF74
:1005D000052306220F2116484C38FFF709FF012199
:1005E00013484C38FFF7BDFE012111484C38FFF786
:1005F000ADFE0F484C38FFF757FF00BF0C484C3892
:10060000FFF7C4FE0028F9D109484C38FFF75CFF1A
:1006100000BF07484C38FFF7AFFE0028F9D1012191
:1006200003484C38FFF745FF11B000BD08000240F9
:100630004C240140C201002008B50121102000F027
:1006400015FD0120ADF8000010208DF803000320F7
:100650008DF8020069463D4800F0B3FA01211020F0
:1006600000F004FD0220ADF8000010208DF803001A
:1006700003208DF802006946344800F0A2FA0121F7
:10068000102000F0F3FC0420ADF8000010208DF8DD
:10069000030003208DF8020069462C4800F091FA0F
:1006A0000121102000F0E2FC0820ADF8000010202D
:1006B0008DF8030003208DF802006946234800F0FE
:1006C00080FA0121102000F0D1FC1020ADF80000CC
:1006D0008DF8030003208DF8020069461B4800F0E6
:1006E00070FA0121102000F0C1FC2020ADF80000BC
:1006F00010208DF8030003208DF80200694613488E
:1007000000F05FFA0121102000F0B0FC4020ADF8AD
:10071000000010208DF8030003208DF802006946C8
:100720000A4800F04EFA0121102000F09FFC8020C2
:10073000ADF8000010208DF8030003208DF80200B2
:100740006946024800F03DFA08BD00000010014073
:1007500008B50121052000F089FC4020ADF800001B
:1007600018208DF8030003208DF8020069461B480D
:1007700000F027FA0121052000F078FC8020ADF878
:10078000000018208DF8030003208DF80200694650
:10079000124800F016FA0121092000F067FC012040
:1007A000ADF8000018208DF8030003208DF802003A
:1007B00069460B4800F005FA0121092000F056FCBB
:1007C0000220ADF8000018208DF8030003208DF8FA
:1007D00002006946024800F0F4F908BD0008014033
:1007E000000C014000BFFEE73A490A780978491C2D
:1007F000384B1970384988540978552903D000219D
:100800001A4611707047334909780B2900DAF9E765
:100810003149497850390A2956D2DFE801F0050DEF
:10082000151D252D353D454D2C492B4A921C13682D
:100830000B6052684A6047E02949274A921C1368B6
:100840000B6052684A603FE02649234A921C1368B5
:100850000B6052684A6037E023491F4A921C1368B4
:100860000B6052684A602FE020491B4A921C1368B3
:100870000B6052684A6027E01D49174A921C1368B2
:100880000B6052684A601FE01A49134A921C1368B1
:100890000B6052684A6017E017490F4A921C1368B0
:1008A0000B6052684A600FE014490B4A921C1368AF
:1008B0000B6052684A6007E01149074A921C1368AE
:1008C0000B6052684A6000BF00BF0021014A1170EE
:1008D00000BF97E7A0000020C800002038000020DB
:1008E0004000002048000020500000205800002058
:1008F00060000020680000207000002078000020C8
:100900008000002021B1026842F00102026004E090
:1009100002684FF6FE731A400260704700B58BB054
:10092000104800F025F81048009010480190002071
:100930000290142003900020049080200590002055
:100940000690079008904FF48050099000200A907C
:100950006946044800F0B6F801210248FFF7D2FFCB
:100960000BB000BD5800024004380140CE01002009
:1009700001684FF6FE721140016000210160416084
:100980008160C1604B49884208D14A4908394968A9
:1009900041F00F01474A083A51608AE04549143155
:1009A000884208D143490839496841F0F001414A79
:1009B000083A51607DE03F492831884208D13D49DD
:1009C0000839496841F470613A4A083A516070E068
:1009D00038493C31884208D136490839496841F4E0
:1009E0007041344A083A516063E0324950318842DC
:1009F00008D130490839496841F470212D4A083A34
:100A0000516056E02B496431884208D129490839A0
:100A1000496841F47001274A083A516049E0254984
:100A20007831884208D123490839496841F070611A
:100A3000204A083A51603CE01F49884206D1011F14
:100A4000096841F00F01021F116032E01A491431A8
:100A5000884208D11849091F096841F0F001164A77
:100A6000121F116025E014492831884208D112492B
:100A7000091F096841F470610F4A121F116018E0E4
:100A80000D493C31884208D10B49091F096841F4DE
:100A90007041094A121F11600BE00749503188422A
:100AA00007D10549091F096841F47021024A121F44
:100AB000116070470800024008040240014648687F
:100AC00080B2704710B50022026847F6F0739A436F
:100AD0000C6A8B6823430C6923434C6923438C695C
:100AE0002343CC6923434C6A23438C6A23431A4330
:100AF0000260CB6843600B6883604B68C36010BDC5
:100B000000B587B0012144F2040000F0AFFA0121E2
:100B1000084600F07BFA284800F046FF4FF40070CA
:100B2000ADF8180003208DF81A0018208DF81B006E
:100B300006A9224800F045F84FF48060ADF818008F
:100B400004208DF81B0006A91C4800F03AF8252067
:100B50008DF8040003208DF805008DF806000120B3
:100B60008DF8070001A800F0B5F94FF4E1300290CC
:100B70000020ADF80C00ADF80E00ADF81000ADF897
:100B800014000C20ADF8120002A90B4800F0B6FFCB
:100B9000012240F22441084800F08BFF012240214D
:100BA000054800F0F7FE0121034800F0E7FEFFF7DB
:100BB000B5FE07B000BD000000380140000801404C
:100BC00070472DE9F0410246002500260020002351
:100BD0000024002791F803C00CF00F0591F803C022
:100BE0000CF0100CBCF1000F03D091F802C04CEADD
:100BF000050591F800C0BCF1000F31D01468002049
:100C00002BE04FF0010C0CFA00F3B1F800C00CEA35
:100C100003069E4220D183004FF00F0C0CFA03F71D
:100C2000BC4305FA03FC4CEA040491F803C0BCF190
:100C3000280F06D14FF0010C0CFA00FCC2F814C0CA
:100C40000AE091F803C0BCF1480F05D14FF0010C48
:100C50000CFA00FCC2F810C0401C0828D1D3146064
:100C6000B1F800C0BCF1FF0F34DD546800202EE065
:100C700000F1080C4FF0010808FA0CF3B1F800C0BD
:100C80000CEA03069E4221D183004FF00F0C0CFAB0
:100C900003F7BC4305FA03FC4CEA040491F803C0D3
:100CA000BCF1280F05D100F1080C08FA0CF8C2F8C5
:100CB000148091F803C0BCF1480F07D100F1080C73
:100CC0004FF0010808FA0CF8C2F81080401C082800
:100CD000CED35460BDE8F0810AB1016100E041610A
:100CE000704710B500F070F800F082FB10BD10B531
:100CF000FFF7A2FCFFF72CFD00F02EFB10BD10B596
:100D000000F020F900F0AAFB10BD00BFFEE70000D4
:100D100010B586B004460121284800F087F94FF449
:100D20008060ADF8140018208DF8170003208DF8AE
:100D3000160005A92248FFF744FF4FF40060ADF804
:100D4000140004208DF8170005A91D48FFF739FF8E
:100D500001940020ADF80800ADF80A00ADF80C00D1
:100D6000ADF810000C20ADF80E0001A9154800F0F8
:100D7000C5FE002240F22771124800F09AFE0122BF
:100D800040F225510F4800F094FE40210D4800F03C
:100D9000DDFD01210B4800F0F1FD34208DF800004D
:100DA00001208DF8010008208DF8020001208DF847
:100DB0000300684600F08EF806B010BD1000080071
:100DC00000100140004C004008B50121092000F04E
:100DD0004DF98020ADF8000018208DF803000320A5
:100DE0008DF8020069461448FFF7EBFE0121102040
:100DF00000F03CF94FF48070ADF8000010208DF841
:100E0000030003208DF8020069460C48FFF7D9FE65
:100E10000121102000F02AF94FF40070ADF8000015
:100E200010208DF8030003208DF802006946034866
:100E3000FFF7C7FE08BD0000000C01400010014094
:100E400070B504460D461646224610210648FFF7A7
:100E500043FF2A4620210448FFF73EFF314603485E
:100E600000F0B5FC70BD000000100140000400401F
:100E700070B504460D461646224601210648FFF786
:100E80002BFF2A4602210448FFF726FF314603487C
:100E900000F099FC70BD000000100140000400400B
:100EA00010B50446012211020648FFF715FF012282
:100EB00051020448FFF710FF2146034800F085FC6B
:100EC00010BD0000001001400008004000BFFEE718
:100ED0007047000070B5002100230F22C47804B3CE
:100EE000154C246804F4E064C4F5E064210AC1F1FF
:100EF0000403CA40447804FA03F18478144021437F
:100F000009010E4C0678A155047804F01F05012450
:100F1000AC4005786D11AD0005F1E025C5F8004144
:100F200009E0047804F01F050124AC40044D067864
:100F3000761145F8264070BD0CED00E000E400E0BD
:100F400080E100E008B50121052000F08FF80120C4
:100F5000ADF8000018208DF8030003208DF8020082
:100F600069461B48FFF72DFE0121052000F07EF8A1
:100F70000220ADF8000018208DF8030003208DF842
:100F8000020069461248FFF71CFE0121052000F00F
:100F90006DF80420ADF8000018208DF80300032040
:100FA0008DF8020069460A48FFF70BFE0121052073
:100FB00000F05CF80820ADF8000018208DF8030060
:100FC00003208DF8020069460148FFF7FAFD08BDCD
:100FD000000801407047000070B504460D462146E8
:100FE000034800F0F0FBA9B2014800F0EEFB70BD31
:100FF000000C004001460020034A506820F44040A5
:1010000008435060704700000010024029B1064AB2
:1010100052690243044B5A6104E0034A5269824315
:10102000014B5A61704700000010024029B1064A86
:10103000D2690243044BDA6104E0034AD269824375
:10104000014BDA61704700000010024029B1064AE6
:1010500012690243044B1A6104E0034A1269824395
:10106000014B1A61704700000010024029B1064A86
:1010700092690243044B9A6104E0034A92698243F5
:10108000014B9A61704700000010024029B1064AE6
:10109000D2680243044BDA6004E0034AD268824318
:1010A000014BDA60704700000010024030B50021AB
:1010B0000022002400232D4D6D6805F00C0121B1A4
:1010C000042905D0082923D105E0294D056022E037
:1010D000274D05601FE0254D6D6805F47012234D06
:1010E0006D6805F48034022505EB92421CB9214D50
:1010F000554305600BE01D4D6D6805F400351DB1CD
:101100001C4D5543056002E0194D5543056002E052
:10111000174D056000BF00BF144D6D6805F0F0016C
:101120000909154D6B5C0568DD4045600F4D6D6824
:1011300005F4E061090A104D6B5C4568DD4085608F
:101140000A4D6D6805F46051C90A0B4D6B5C45682A
:10115000DD40C560054D6D6805F44041890B074DC4
:101160006B5CC568B5FBF3F5056130BD001002404E
:1011700000127A0000093D00140000202400002025
:1011800070B504460D461646224640210648FFF734
:10119000A3FD2A4680210448FFF79EFD31460348FF
:1011A00000F017FB70BD000000100140000400407B
:1011B00070B504460D461646224604210648FFF740
:1011C0008BFD2A4608210448FFF786FD3146034877
:1011D00000F0FBFA70BD0000001001400004004068
:1011E000704710B500F002F810BD00000CB50020EB
:1011F000019000903348006840F480303149086025
:1012000000BF3048006800F4003000900198401C96
:101210000190009818B90198B0F5A06FF1D1294854
:10122000006800F4003010B10120009001E00020BF
:1012300000900098012843D12348006840F0100036
:10124000214908600846006820F00300086008464D
:10125000006840F0020008601A4840681949486078
:101260000846406848600846406840F4806048602E
:101270000846406820F47C1048600846406840F406
:10128000E81048600846006840F08070086000BFC1
:101290000C48006800F000700028F9D00948406848
:1012A00020F00300074948600846406840F002000B
:1012B000486000BF0348406800F00C000828F9D1DE
:1012C0000CBD00000010024000200240042808D19C
:1012D0004FF0E021096941F004014FF0E022116173
:1012E00007E04FF0E021096921F004014FF0E0220E
:1012F000116170477047000010B51348006840F056
:1013000001001149086008464068104908400E492C
:101310004860084600680E4908400B4908600846C6
:10132000006820F4802008600846406820F4FE0031
:1013300048604FF41F008860FFF753FF4FF00060D4
:101340000449086010BD0000001002400000FFF8D2
:10135000FFFFF6FE08ED00E000B587B00121022096
:10136000FFF764FE01210220FFF760FE6320ADF865
:1013700014004720ADF810000020ADF81600ADF8BD
:1013800012008DF8180004A9184800F025FA602012
:10139000ADF800000120ADF802000020ADF8080013
:1013A0006946124800F0B4F80821104800F0FCF833
:1013B00069460E4800F002F908210C4800F050F987
:1013C00069460A4800F05AF90821084800F0A6F9D1
:1013D0006946064800F0ACF90821044800F0E6F937
:1013E0000121024800F088F807B000BD0004004069
:1013F00000B587B001210420FFF718FE012102206B
:10140000FFF714FE6320ADF814004720ADF810007C
:101410000020ADF81600ADF812008DF8180004A9F0
:101420000D4800F0D9F96020ADF800000120ADF8BA
:1014300002000020ADF80800ADF806006946064835
:1014400000F0BCF80821044800F00AF90121024824
:1014500000F052F807B000BD0008004000B587B0AA
:1014600001210820FFF7E2FD01210820FFF7DEFD42
:10147000C720ADF8140041F61F40ADF81000002061
:10148000ADF81600ADF812008DF8180004A919483F
:1014900000F0A2F96020ADF800000120ADF80200D4
:1014A0000020ADF808006946124800F031F8082124
:1014B000104800F079F869460E4800F07FF80821DE
:1014C0000C4800F0CDF869460A4800F0D7F808212A
:1014D000084800F023F96946064800F029F9082178
:1014E000044800F063F90121024800F005F807B054
:1014F00000BD0000000C004021B1028842F0010252
:10150000028004E002884FF6FE731A4002807047A2
:1015100070B5002400220023058C4FF6FE7635407E
:101520000584028C8388048B4FF68F752C40B51E82
:101530002C400D882C43751E2A400D892A434D8866
:101540002A43144DA8420BD0134DA84208D0134D86
:10155000A84205D0124DA84202D0124DA84213D184
:101560004FF6F7752A404D892A434FF6FB752A40FE
:101570008D882A434FF6FF652B404FF6FF552B40D1
:101580008D892B43CD892B4383800483CD88858629
:10159000028470BD002C0140003401400040014035
:1015A00000440140004801400A460021018B4FF6EB
:1015B000F7731940114301837047000070B5002490
:1015C00000220023058C4FF6EF7635400584028C0F
:1015D0008388048B48F6FF752C404FF6FF452C405E
:1015E0000D884FF6FF7606EA05252C434FF6DF758A
:1015F0002A400D8906EA05152A434D8806EA051595
:101600002A43154DA84202D0144DA8421DD14FF6D1
:101610007F752A404D894FF6FF7606EA05152A4365
:101620004FF6BF752A408D8806EA05152A434FF606
:10163000FF352B404FF2FF752B408D8906EA85055B
:101640002B43CD8906EA85052B4383800483CD880F
:101650000587028470BD0000002C01400034014069
:101660000A460021018B4FF2FF7319404FF6FF73BA
:1016700003EA0223194301837047000070B5002478
:1016800000220023058C4FF6FF6635400584028C4E
:101690008388848B4FF68F752C404FF6FC752C4059
:1016A0000D882C434FF6FF552A400D894FF6FF76E3
:1016B00006EA05252A434D8806EA05252A43154DE5
:1016C000A84202D0144DA8421DD14FF2FF752A4006
:1016D0004D894FF6FF7606EA05252A434FF6FF357A
:1016E0002A408D8806EA05252A434EF6FF752B40D1
:1016F0004DF6FF752B408D8906EA05152B43CD89E4
:1017000006EA05152B4383808483CD888587028470
:1017100070BD0000002C0140003401400A46002149
:10172000818B4FF6F7731940114381837047000096
:1017300070B5002200230024058C4EF6FF7635405C
:101740000584038C8488828B48F6FF752A404FF607
:10175000FF452A400D884FF6FF7606EA05252A4305
:101760004DF6FF752B400D8906EA05352B434D8854
:1017700006EA05352B430B4DA84202D00A4DA8427C
:1017800008D14BF6FF752C408D894FF6FF7606EA9F
:1017900085152C4384808283CD88A0F84050038433
:1017A00070BD0000002C0140003401400A460021B9
:1017B000818B4FF2FF7319404FF6FF7303EA022348
:1017C00019438183704781867047018770478187FD
:1017D0007047A0F840107047002202881D4B9842C5
:1017E0000ED01D4B98420BD0B0F1804F08D01B4B50
:1017F000984205D01A4B984202D01A4B984204D115
:101800004FF68F731A404B881A43174B984207D0F4
:10181000164B984204D04FF6FF431A40CB881A4328
:1018200002808B8883850B8803850A4B98420BD0F6
:10183000094B984208D00E4B984205D00D4B984268
:1018400002D00D4B984201D10B7A0386012383828B
:1018500070470000002C01400034014000040040AB
:1018600000080040000C0040001000400014004040
:1018700000400140004401400048014010B540F2E2
:1018800027711C4800F0EBF8E0B11B4802780078A3
:10189000401C194B18701948815C164800F09FF9DC
:1018A00040F22771134800F05AF8134800781449A1
:1018B0000978884217D1002240F227710D4800F0C4
:1018C000F8F810E040F225510A4800F0C8F850B18D
:1018D0000849091D0988C8B2FEF786FF40F2255164
:1018E000044800F03CF84FF45871024800F037F813
:1018F00010BD0000004C0040A8000020E2010020C4
:10190000A900002010B540F224410C4800F0A7F8CF
:1019100098B10A4800F05EF90948FFF7CFF8C0F126
:1019200014000849088040F22441044800F017F8E8
:10193000FEF7F4FF01200449087010BD0038014093
:1019400058000240A20000203700002001F400727D
:10195000B2F5007F00D100BFCA430280704710B5C6
:101960000022002340F66A14A14200D100BF0A12EF
:1019700001249440A3B2DC43048010BD21B18289CC
:1019800042F40052828104E082894DF6FF731A40CE
:10199000828170471AB1838A0B43838202E0838A73
:1019A0008B4383827047000010B504462048844270
:1019B00009D101218803FFF769FB00214FF4804022
:1019C000FFF764FB32E01B48844209D1012148043F
:1019D000FFF73CFB00214FF40030FFF737FB25E019
:1019E0001548844209D101218804FFF72FFB00210B
:1019F0004FF48020FFF72AFB18E01048844209D1F9
:101A00000121C804FFF722FB00214FF40020FFF75B
:101A10001DFB0BE00A48844208D101210805FFF7AD
:101A200015FB00214FF48010FFF710FB10BD0000E4
:101A3000003801400044004000480040004C004095
:101A40000050004002460020B1F5007F00D100BFE9
:101A500013880B400BB1012000E00020704770B5E7
:101A60000246002400230025002040F66A16B142F9
:101A700000D100BFC1F3421501F01F03012606FA91
:101A800003F3012D02D19689334006E0022D02D1E5
:101A9000168A334001E0968A33400C12012606FA7A
:101AA00004F41688344013B10CB1012000E000208A
:101AB00070BDF0B50346002400260025002040F646
:101AC0006A17B94200D100BF1846C1F3421401F0B1
:101AD0001F06012707FA06F5012C01D10C3004E09E
:101AE000022C01D1103000E014301AB107682F43E6
:101AF000076002E00768AF430760F0BD2DE9F047DB
:101B000086B005460E460024A24600BFA146002727
:101B1000B08900B100BF2F462C8A4CF6FF700440FC
:101B2000F08804432C82AC894EF6F3100440B08850
:101B300031890843718908430443AC81AC8A4FF66C
:101B4000FF400440B0890443AC8201A8FFF7AEFA1D
:101B50001F48874202D1DDF810A001E0DDF80CA09B
:101B6000A88900F4004040B10AEBCA0000EB0A105B
:101B700031684900B0FBF1F807E00AEBCA0000EB5E
:101B80000A1031688900B0FBF1F86420B8FBF0F06E
:101B900004012009642101FB1089A88900F4004098
:101BA00040B1322000EBC900B0FBF1F000F00700BB
:101BB000044308E0322000EB09106421B0FBF1F08F
:101BC00000F00F0004432C8106B0BDE8F087000050
:101BD0000038014001468888C0F308007047C1F30F
:101BE00008028280704700BFFEE700000FB4054B7B
:101BF00010B503A9044A029800F018F810BC5DF86B
:101C000014FB0000111E0008AC00002002E008C810
:101C1000121F08C1002AFAD170477047002001E066
:101C200001C1121F002AFBD1704700002DE9FF4FB0
:101C300089B09B460446002506E025280BD05A466D
:101C40000B999047641C6D1C20780028F5D10DB0CD
:101C50002846BDE8F08F0027B8460122474900E03A
:101C6000074314F8013F203B02FA03F00842F7D182
:101C700020782E2819D114F8010F47F004072A28DC
:101C80000ED06FF02F022078A0F1300109290CD876
:101C900008EB880102EB410100EB0108641CF2E74C
:101CA0000A98641C50F8048B0A9020780028CED043
:101CB000642808D0692806D075281ED05A460B998A
:101CC00090476D1C58E00A994FF00A0901C90A9122
:101CD000002802DA40422D2102E0390504D52B21EB
:101CE0008DF82010012103E0F90704D02021F7E747
:101CF0008A4608AE0DE00021FAE70A994FF00A097A
:101D000001C90A91F7E74946FEF7C0FA303106F8F3
:101D1000011D0028F7D1ADEB060000F1200978077E
:101D200001D44FF00108C84502DDA8EB090000E02E
:101D300000208046002706E008A85A46C05D0B999F
:101D400090476D1C7F1C5745F6DB04E030205A4657
:101D50000B9990476D1CB8F10001A8F10108F5DC62
:101D600005E016F8010B5A460B9990476D1CB9F126
:101D70000001A9F10109F4DC641C65E709280100F0
:101D800010B56FF00400FFF7A1FA0A4800680A498D
:101D9000B0FBF1F0094908700846007800EB4001FB
:101DA000C1EBC0104FF6FF7101EAC0000449088082
:101DB00010BD00000000002000127A00A4000020E6
:101DC000A60000200146114A12884A434FF0E02342
:101DD0005A6100229A611A46126942F001021A61A0
:101DE00000BF4FF0E022106900F001021AB100F4C8
:101DF0008032002AF5D04FF0E022126922F0010271
:101E00004FF0E0231A6100229A617047A60000207B
:101E100070B504460D46E1B20548FFF7E0FE00BF8D
:101E200080210348FFF70EFE0028F9D0204670BD40
:101E300000380140FFF7A4FFFEF75EFBFEF757FFF7
:101E4000FEF75DFFFEF75CFEFEF74BFF4FF416500A
:101E5000FEF75EFF4FF47A70FFF7B4FF10210F20FA
:101E6000FFF7BAF80020FFF71BF800221146012007
:101E7000FEF7FEFF002201210846FFF799F9002234
:101E800011460120FEF7DCFF002201210846FFF782
:101E900077F9002003E000218E4A1154401C1028DD
:101EA000F9DB16E18C49B1F90000FEF7CDF90646E1
:101EB0004FF08E41FEF78AF905468849FEF754F93E
:101EC0000446FEF7CAF9864908608349B1F9020061
:101ED000FEF7BAF906464FF08E41FEF777F9054650
:101EE0007E49FEF741F90446FEF7B7F97D490860DF
:101EF0007949B1F90400FEF7A7F906464FF08E4183
:101F0000FEF764F905467549FEF72EF90446FEF71B
:101F1000A4F9754908600846036872480268704869
:101F2000016872A0FFF762FE79480078002841D06E
:101F300078A0FFF75BFE674800787A49087065482B
:101F4000407879490870634880787849087061481A
:101F5000C078774908705F480079764908705D4815
:101F60004079754908705B48807974490870594810
:101F7000C079734908705748007A7249087055480B
:101F8000407A714908705348807A70490870514806
:101F9000C07A6F4908704F48007B6E4908704D4801
:101FA000407B6D4908704B48807B6C49087000206D
:101FB000574908706A48007840B95C4800785E4923
:101FC0000978884202D101206649087000206449DE
:101FD00008705648007858490978884202D1012093
:101FE0005F4908705E480078C0B15E480078A8B1CB
:101FF0003949B1F90400FEF727F906464FF08E4142
:10200000FEF7E4F805463549FEF7AEF80446FEF75C
:1020100024F9554908600020524908702E49B1F949
:102020000400FEF711F906464FF08E41FEF7CEF898
:1020300005462A49FEF798F80446FEF70EF94B4983
:10204000086047480078D0B10846006846490968EA
:1020500088420ADA35480078401E34490870394809
:102060000078401E3749087009E033480078401E68
:102070003149087036480078401E354908702B48B1
:1020800002782948017827480078FEF7F1FE2A48AF
:1020900002782848017826480078FFF789F829480F
:1020A00002782748017825480078FEF7C9FE2848BD
:1020B00002782648017824480078FFF761F826481E
:1020C000017824480078FEF787FF24480078FEF75F
:1020D000E7FEE7E6CE010020500000200000344378
:1020E000880000208C00002090000020616E676C4A
:1020F000652D783A25642C616E676C652D793A25DB
:10210000642C616E676C652D7A3A25640D0A0000B7
:102110003700002066696C6C20696E206461746110
:102120000A0000002A0000202B0000202C000020C4
:102130002D0000202E0000202F0000203000002065
:102140003100002032000020330000203400002045
:102150003500002028000020290000203600002043
:102160009400002095000020980000209C00002092
:102170009021000800000020B00000000C1C0008A6
:1021800040220008B0000020380600001C1C000897
:1021900000A24A0400000000000000000102030445
:1021A00006070809000000000102030401020304FD
:1021B00006070809020406080F0F000000000000CF
:1021C000000000000000000000000000000000000F
:1021D00000000000000000000000000000000000FF
:1021E00000000000000000000000000000000000EF
:1021F00000000000000000000000000000000000DF
:1022000000000000000000000000000000000000CE
:1022100000000000000000000000000000000000BE
:1022200000000000000100000000000000000000AD
:10223000000000000000000000000000000000009E
:0400000508000145A9
:00000001FF
