:020000040800F2
:100000006804002045010008690B00085B0A00082D
:10001000650B000851060008E31700080000000007
:10002000000000000000000000000000790E000841
:1000300011090008000000006D0C00088D0F000879
:100040005F0100085F0100085F0100085F01000810
:100050005F0100085F0100085F0100085F01000800
:100060005F0100085F0100085F0100085F010008F0
:100070005F0100085F0100085F0100085F010008E0
:100080005F0100085F0100085F0100085F010008D0
:100090005F0100085F0100085F0100085F010008C0
:1000A0005F0100085F0100085F0100085F010008B0
:1000B0005F0100085F0100085F0100085F010008A0
:1000C0005F0100085F0100085F0100085F01000890
:1000D0005F010008151500085F0100085F010008B6
:1000E0005F0100085F0100085F0100085F01000870
:1000F0005F0100085F0100085F0100085F01000860
:100100005F0100085F0100085F0100085F0100084F
:100110005F0100085F0100085F0100085F0100083F
:100120005F0100085F0100085F0100085F0100082F
:10013000DFF80CD000F02EF800480047E519000861
:10014000680400200648804706480047FEE7FEE7AF
:10015000FEE7FEE7FEE7FEE7FEE7FEE7FEE7FEE777
:10016000910F00083101000830B50B460146002010
:100170002022012409E021FA02F59D4205D303FA69
:1001800002F5491B04FA02F52844151EA2F10102EA
:10019000F1DC30BD064C074D06E0E06840F001039D
:1001A00094E8070098471034AC42F6D3FFF7C4FF39
:1001B000F01D0008101E000821B1826842F0010203
:1001C000826003E0826822F001028260704721B100
:1001D000826842F48072826003E0826822F4807256
:1001E00082607047014600208A6802F004020AB16A
:1001F000012000E000207047014600208A6802F0DC
:1002000008020AB1012000E00020704730B5024624
:100210000020002350680F4C20400D790C6844EA00
:1002200005242043506090680B4C2040D1E90254D3
:100230002C434D7944EA450420439060D06A20F471
:1002400070000C7C641EE4B2234340EA0350D06289
:1002500030BD0000FFFEF0FFFDF7F1FFF0B50446F2
:100260000D4600200021092D11DDE068A5F10A06E8
:1002700006EB4607072606FA07F18843A5F10A06AA
:1002800006EB460603FA06F10843E0600CE020693D
:1002900005EB4507072606FA07F1884305EB4506F7
:1002A00003FA06F108432061072A0FDA606B561E35
:1002B00006EB86071F2606FA07F18843561E06EB53
:1002C000860605FA06F10843606322E00D2A0FDA7C
:1002D000206BD61F06EB86071F2606FA07F1884318
:1002E000D61F06EB860605FA06F10843206310E0E8
:1002F000E06AA2F10D0606EB86071F2606FA07F153
:100300008843A2F10D0606EB860605FA06F10843BE
:10031000E062F0BD816841F008018160704721B161
:10032000826842F4A002826003E0826822F4A002A4
:1003300082607047816841F004018160704700006D
:1003400008B50121102000F0DDFC3F20ADF80000D1
:1003500000208DF803006946014800F0DAFA08BD74
:100360000010014010B5FFF7EBFF00F001F810BDE1
:1003700000B591B00121084600F094FC012148022B
:1003800000F0C0FC444800F09BF944480690444803
:100390000790002008900620099000200A908020F5
:1003A0000B9040000C9080000D9020200E900002D9
:1003B0000F900020109006A9374800F02BFA012179
:1003C000354800F047F90020019001208DF8080021
:1003D0008DF809004FF4602003900020049006205F
:1003E0008DF8140001A92D484C38FFF70FFF4FF48A
:1003F000404000F04BFC052301220A2127484C38DD
:10040000FFF72CFF052302220B2124484C38FFF76D
:1004100025FF052303220C2120484C38FFF71EFF3F
:10042000052304220D211D484C38FFF717FF052333
:100430001A460E2119484C38FFF710FF05230622F3
:100440000F2116484C38FFF709FF012113484C389B
:10045000FFF7BDFE012111484C38FFF7ADFE0F48F4
:100460004C38FFF757FF00BF0C484C38FFF7C4FE6D
:100470000028F9D109484C38FFF75CFF00BF074856
:100480004C38FFF7AFFE0028F9D1012103484C3862
:10049000FFF745FF11B000BD080002404C240140A9
:1004A0004400002008B50121102000F02BFC0120A1
:1004B000ADF8000010208DF8030003208DF8020035
:1004C00069463D4800F025FA0121102000F01AFC91
:1004D0000220ADF8000010208DF8030003208DF8F5
:1004E00002006946344800F014FA0121102000F09F
:1004F00009FC0420ADF8000010208DF80300032053
:100500008DF8020069462C4800F003FA0121102002
:1005100000F0F8FB0820ADF8000010208DF8030073
:1005200003208DF802006946234800F0F2F901210A
:10053000102000F0E7FB1020ADF800008DF803005C
:1005400003208DF8020069461B4800F0E2F9012102
:10055000102000F0D7FB2020ADF8000010208DF80F
:10056000030003208DF802006946134800F0D1F91A
:100570000121102000F0C6FB4020ADF80000102043
:100580008DF8030003208DF8020069460A4800F048
:10059000C0F90121102000F0B5FB8020ADF800006B
:1005A00010208DF8030003208DF8020069460248F0
:1005B00000F0AFF908BD00000010014008B50121AE
:1005C000052000F09FFB4020ADF8000018208DF8BA
:1005D000030003208DF8020069461B4800F099F9DA
:1005E0000121052000F08EFB8020ADF800001820CE
:1005F0008DF8030003208DF802006946124800F0D0
:1006000088F90121092000F07DFB0120ADF80000F0
:1006100018208DF8030003208DF8020069460B486E
:1006200000F077F90121092000F06CFB0220ADF801
:10063000000018208DF8030003208DF802006946A1
:10064000024800F066F908BD00080140000C0140B6
:1006500000BFFEE721B1026842F00102026004E03F
:1006600002684FF6FE731A400260704700B58BB007
:10067000104800F025F81048009010480190002024
:100680000290142003900020049080200590002008
:100690000690079008904FF48050099000200A902F
:1006A0006946044800F0B6F801210248FFF7D2FF7E
:1006B0000BB000BD5800024004380140500000203B
:1006C00001684FF6FE721140016000210160416037
:1006D0008160C1604B49884208D14A49083949685C
:1006E00041F00F01474A083A51608AE04549143108
:1006F000884208D143490839496841F0F001414A2C
:10070000083A51607DE03F492831884208D13D498F
:100710000839496841F470613A4A083A516070E01A
:1007200038493C31884208D136490839496841F492
:100730007041344A083A516063E03249503188428E
:1007400008D130490839496841F470212D4A083AE6
:10075000516056E02B496431884208D12949083953
:10076000496841F47001274A083A516049E0254937
:100770007831884208D123490839496841F07061CD
:10078000204A083A51603CE01F49884206D1011FC7
:10079000096841F00F01021F116032E01A4914315B
:1007A000884208D11849091F096841F0F001164A2A
:1007B000121F116025E014492831884208D11249DE
:1007C000091F096841F470610F4A121F116018E097
:1007D0000D493C31884208D10B49091F096841F491
:1007E0007041094A121F11600BE0074950318842DD
:1007F00007D10549091F096841F47021024A121FF7
:100800001160704708000240080402400146486831
:1008100080B2704710B50022026847F6F0739A4321
:100820000C6A8B6823430C6923434C6923438C690E
:100830002343CC6923434C6A23438C6A23431A43E2
:100840000260CB6843600B6883604B68C36010BD77
:1008500000B587B0012144F2040000F053FA0121F1
:10086000084600F01FFA284800F09CFE4FF4007084
:10087000ADF8180003208DF81A0018208DF81B0021
:1008800006A9224800F045F84FF48060ADF8180042
:1008900004208DF81B0006A91C4800F03AF825201A
:1008A0008DF8040003208DF805008DF80600012066
:1008B0008DF8070001A800F059F94FF4E1300290DB
:1008C0000020ADF80C00ADF80E00ADF81000ADF84A
:1008D00014000C20ADF8120002A90B4800F00CFF28
:1008E000012240F22441084800F0E1FE01224021AB
:1008F000054800F04EFE0121034800F03EFEFFF7E0
:10090000B5FE07B000BD00000038014000080140FE
:1009100070472DE9F0410246002500260020002303
:100920000024002791F803C00CF00F0591F803C0D4
:100930000CF0100CBCF1000F03D091F802C04CEA8F
:10094000050591F800C0BCF1000F31D014680020FB
:100950002BE04FF0010C0CFA00F3B1F800C00CEAE8
:1009600003069E4220D183004FF00F0C0CFA03F7D0
:10097000BC4305FA03FC4CEA040491F803C0BCF143
:10098000280F06D14FF0010C0CFA00FCC2F814C07D
:100990000AE091F803C0BCF1480F05D14FF0010CFB
:1009A0000CFA00FCC2F810C0401C0828D1D3146017
:1009B000B1F800C0BCF1FF0F34DD546800202EE018
:1009C00000F1080C4FF0010808FA0CF3B1F800C070
:1009D0000CEA03069E4221D183004FF00F0C0CFA63
:1009E00003F7BC4305FA03FC4CEA040491F803C086
:1009F000BCF1280F05D100F1080C08FA0CF8C2F878
:100A0000148091F803C0BCF1480F07D100F1080C25
:100A10004FF0010808FA0CF8C2F81080401C0828B2
:100A2000CED35460BDE8F0810AB1016100E04161BC
:100A3000704710B500F014F800F026FB10BD10B59B
:100A4000FFF730FDFFF7BAFD00F0D2FA10BD10B588
:100A500000F0C4F800F04EFB10BD00BFFEE7000040
:100A600008B50121092000F04DF98020ADF8000003
:100A700018208DF8030003208DF802006946144801
:100A8000FFF747FF0121102000F03CF94FF4807080
:100A9000ADF8000010208DF8030003208DF802004F
:100AA00069460C48FFF735FF0121102000F02AF9B4
:100AB0004FF40070ADF8000010208DF80300032003
:100AC0008DF8020069460348FFF723FF08BD0000C8
:100AD000000C01400010014070B504460D4616465A
:100AE000224610210648FFF79FFF2A46202104488E
:100AF000FFF79AFF3146034800F0B5FC70BD0000D7
:100B0000001001400004004070B504460D46164632
:100B1000224601210648FFF787FF2A4602210448A2
:100B2000FFF782FF3146034800F099FC70BD0000DA
:100B3000001001400004004010B5044601221102DB
:100B40000648FFF771FF012251020448FFF76CFFCE
:100B50002146034800F085FC10BD00000010014054
:100B60000008004000BFFEE77047000070B500219C
:100B700000230F22C47804B3154C246804F4E06405
:100B8000C4F5E064210AC1F10403CA40447804FAC0
:100B900003F184781440214309010E4C0678A155D5
:100BA000047804F01F050124AC4005786D11AD00F8
:100BB00005F1E025C5F8004109E0047804F01F05BF
:100BC0000124AC40044D0678761145F8264070BDEE
:100BD0000CED00E000E400E080E100E008B5012158
:100BE000052000F08FF80120ADF8000018208DF8E6
:100BF000030003208DF8020069461B48FFF789FEB9
:100C00000121052000F07EF80220ADF80000182038
:100C10008DF8030003208DF8020069461248FFF7A3
:100C200078FE0121052000F06DF80420ADF80000E9
:100C300018208DF8030003208DF8020069460A4849
:100C4000FFF767FE0121052000F05CF80820ADF8F1
:100C5000000018208DF8030003208DF8020069467B
:100C60000148FFF756FE08BD00080140704700002C
:100C700070B504460D462146034800F0F0FBA9B2CA
:100C8000014800F0EEFB70BD000C00400146002062
:100C9000034A506820F44040084350607047000009
:100CA0000010024029B1064A52690243044B5A61BE
:100CB00004E0034A52698243014B5A6170470000C5
:100CC0000010024029B1064AD2690243044BDA619E
:100CD00004E0034AD2698243014BDA6170470000A5
:100CE0000010024029B1064A12690243044B1A61FE
:100CF00004E0034A12698243014B1A617047000005
:100D00000010024029B1064A92690243044B9A61DD
:100D100004E0034A92698243014B9A6170470000E4
:100D20000010024029B1064AD2680243044BDA603F
:100D300004E0034AD2688243014BDA607047000046
:100D40000010024030B500210022002400232D4D68
:100D50006D6805F00C0121B1042905D0082923D1C3
:100D600005E0294D056022E0274D05601FE0254D77
:100D70006D6805F47012234D6D6805F4803402250A
:100D800005EB92421CB9214D554305600BE01D4D0A
:100D90006D6805F400351DB11C4D5543056002E03A
:100DA000194D5543056002E0174D056000BF00BFB7
:100DB000144D6D6805F0F0010909154D6B5C05686F
:100DC000DD4045600F4D6D6805F4E061090A104D86
:100DD0006B5C4568DD4085600A4D6D6805F46051C7
:100DE000C90A0B4D6B5C4568DD40C560054D6D68FB
:100DF00005F44041890B074D6B5CC568B5FBF3F505
:100E0000056130BD0010024000127A0000093D006B
:100E1000140000202400002070B504460D4616463C
:100E2000224640210648FFF7FFFD2A46802104485C
:100E3000FFF7FAFD3146034800F017FB70BD0000D4
:100E4000001001400004004070B504460D461646EF
:100E5000224604210648FFF7E7FD2A4608210448F8
:100E6000FFF7E2FD3146034800F0FBFA70BD0000D9
:100E70000010014000040040704710B500F002F877
:100E800010BD00000CB500200190009033480068B0
:100E900040F480303149086000BF3048006800F4F9
:100EA000003000900198401C0190009818B90198FA
:100EB000B0F5A06FF1D12948006800F4003010B1FE
:100EC0000120009001E0002000900098012843D10B
:100ED0002348006840F01000214908600846006877
:100EE00020F0030008600846006840F00200086037
:100EF0001A484068194948600846406848600846F2
:100F0000406840F4806048600846406820F47C10E7
:100F100048600846406840F4E810486008460068A9
:100F200040F08070086000BF0C48006800F000705E
:100F30000028F9D00948406820F0030007494860BC
:100F40000846406840F00200486000BF034840681F
:100F500000F00C000828F9D10CBD00000010024080
:100F600000200240042808D14FF0E021096941F037
:100F700004014FF0E022116107E04FF0E021096920
:100F800021F004014FF0E02211617047704700002A
:100F900010B51348006840F0010011490860084688
:100FA0004068104908400E494860084600680E49EC
:100FB00008400B4908600846006820F4802008605B
:100FC0000846406820F4FE0048604FF41F00886027
:100FD000FFF753FF4FF000600449086010BD0000A8
:100FE000001002400000FFF8FFFFF6FE08ED00E0F1
:100FF00000B587B001210220FFF764FE0121022025
:10100000FFF760FE6320ADF814004720ADF8100034
:101010000020ADF81600ADF812008DF8180004A9F4
:10102000184800F025FA6020ADF800000120ADF866
:1010300002000020ADF808006946124800F0B4F83C
:101040000821104800F0FCF869460E4800F002F94B
:1010500008210C4800F050F969460A4800F05AF996
:101060000821084800F0A6F96946064800F0ACF9E6
:101070000821044800F0E6F90121024800F088F850
:1010800007B000BD0004004000B587B00121042076
:10109000FFF718FE01210220FFF714FE6320ADF8D0
:1010A00014004720ADF810000020ADF81600ADF890
:1010B00012008DF8180004A90D4800F0D9F960203D
:1010C000ADF800000120ADF802000020ADF80800E6
:1010D000ADF806006946064800F0BCF8082104484F
:1010E00000F00AF90121024800F052F807B000BDF3
:1010F0000008004000B587B001210820FFF7E2FD9D
:1011000001210820FFF7DEFDC720ADF8140041F6ED
:101110001F40ADF810000020ADF81600ADF8120029
:101120008DF8180004A9194800F0A2F96020ADF864
:1011300000000120ADF802000020ADF8080069466B
:10114000124800F031F80821104800F079F869469B
:101150000E4800F07FF808210C4800F0CDF86946F1
:101160000A4800F0D7F80821084800F023F969463A
:10117000064800F029F90821044800F063F901212C
:10118000024800F005F807B000BD0000000C004068
:1011900021B1028842F00102028004E002884FF689
:1011A000FE731A400280704770B5002400220023AD
:1011B000058C4FF6FE7635400584028C8388048BBF
:1011C0004FF68F752C40B51E2C400D882C43751E94
:1011D0002A400D892A434D882A43144DA8420BD03A
:1011E000134DA84208D0134DA84205D0124DA84275
:1011F00002D0124DA84213D14FF6F7752A404D89FF
:101200002A434FF6FB752A408D882A434FF6FF6527
:101210002B404FF6FF552B408D892B43CD892B4317
:1012200083800483CD888586028470BD002C0140B4
:1012300000340140004001400044014000480140AA
:101240000A460021018B4FF6F773194011430183C1
:101250007047000070B5002400220023058C4FF673
:10126000EF7635400584028C8388048B48F6FF7541
:101270002C404FF6FF452C400D884FF6FF7606EACE
:1012800005252C434FF6DF752A400D8906EA051522
:101290002A434D8806EA05152A43154DA84202D077
:1012A000144DA8421DD14FF67F752A404D894FF647
:1012B000FF7606EA05152A434FF6BF752A408D884A
:1012C00006EA05152A434FF6FF352B404FF2FF750E
:1012D0002B408D8906EA85052B43CD8906EA8505D5
:1012E0002B4383800483CD880587028470BD000072
:1012F000002C0140003401400A460021018B4FF2CE
:10130000FF7319404FF6FF7303EA02231943018369
:101310007047000070B5002400220023058C4FF6B2
:10132000FF6635400584028C8388848B4FF68F7569
:101330002C404FF6FC752C400D882C434FF6FF5582
:101340002A400D894FF6FF7606EA05252A434D8887
:1013500006EA05252A43154DA84202D0144DA8429D
:101360001DD14FF2FF752A404D894FF6FF7606EAF0
:1013700005252A434FF6FF352A408D8806EA0525C4
:101380002A434EF6FF752B404DF6FF752B408D8995
:1013900006EA05152B43CD8906EA05152B43838004
:1013A0008483CD888587028470BD0000002C0140B5
:1013B000003401400A460021818B4FF6F773194033
:1013C000114381837047000070B500220023002480
:1013D000058C4EF6FF7635400584038C8488828B1D
:1013E00048F6FF752A404FF6FF452A400D884FF614
:1013F000FF7606EA05252A434DF6FF752B400D8939
:1014000006EA05352B434D8806EA05352B430B4D7F
:10141000A84202D00A4DA84208D14BF6FF752C40D5
:101420008D894FF6FF7606EA85152C4384808283EA
:10143000CD88A0F84050038470BD0000002C01400E
:10144000003401400A460021818B4FF2FF7319409E
:101450004FF6FF7303EA02231943818370478186A5
:1014600070470187704781877047A0F84010704728
:10147000002202881D4B98420ED01D4B98420BD083
:10148000B0F1804F08D01B4B984205D01A4B9842C0
:1014900002D01A4B984204D14FF68F731A404B88F2
:1014A0001A43174B984207D0164B984204D04FF678
:1014B000FF431A40CB881A4302808B8883850B88B0
:1014C00003850A4B98420BD0094B984208D00E4B2B
:1014D000984205D00D4B984202D00D4B984201D155
:1014E0000B7A03860123838270470000002C0140A1
:1014F000003401400004004000080040000C00409F
:101500000010004000140040004001400044014031
:101510000048014010B540F224410C4800F09DF80D
:1015200098B10A4800F054F90948FFF76FF9C0F183
:1015300014000849088040F22441044800F00EF8E5
:10154000FFF794F801200449087010BD00380140ED
:1015500058000240380000203700002010B500225B
:10156000002340F66A14A14200D100BF0A120124F0
:101570009440A3B2DC43048010BD21B1828942F4BF
:101580000052828104E082894DF6FF731A40828105
:1015900070471AB1838A0B43838202E0838A8B43AC
:1015A0008382704710B504462048844209D1012146
:1015B0008803FFF7B7FB00214FF48040FFF7B2FB31
:1015C00032E01B48844209D101214804FFF78AFB1D
:1015D00000214FF40030FFF785FB25E015488442D9
:1015E00009D101218804FFF77DFB00214FF4802001
:1015F000FFF778FB18E01048844209D10121C804A4
:10160000FFF770FB00214FF40020FFF76BFB0BE0AE
:101610000A48844208D101210805FFF763FB002135
:101620004FF48010FFF75EFB10BD00000038014052
:101630000044004000480040004C00400050004082
:1016400002460020B1F5007F00D100BF13880B4097
:101650000BB1012000E00020704770B50246002465
:1016600000230025002040F66A16B14200D100BFD9
:10167000C1F3421501F01F03012606FA03F3012D01
:1016800002D19689334006E0022D02D1168A3340FA
:1016900001E0968A33400C12012606FA04F41688FB
:1016A000344013B10CB1012000E0002070BDF0B552
:1016B0000346002400260025002040F66A17B942A0
:1016C00000D100BF1846C1F3421401F01F060127E4
:1016D00007FA06F5012C01D10C3004E0022C01D1EF
:1016E000103000E014301AB107682F43076002E0A1
:1016F0000768AF430760F0BD2DE9F04786B00546A7
:101700000E460024A24600BFA1460027B08900B1C2
:1017100000BF2F462C8A4CF6FF700440F08804432B
:101720002C82AC894EF6F3100440B088318908430E
:10173000718908430443AC81AC8A4FF6FF400440F2
:10174000B0890443AC8201A8FFF7FCFA1F48874226
:1017500002D1DDF810A001E0DDF80CA0A88900F4AA
:10176000004040B10AEBCA0000EB0A1031684900A2
:10177000B0FBF1F807E00AEBCA0000EB0A10316891
:101780008900B0FBF1F86420B8FBF0F004012009F7
:10179000642101FB1089A88900F4004040B1322087
:1017A00000EBC900B0FBF1F000F00700044308E0D3
:1017B000322000EB09106421B0FBF1F000F00F00C3
:1017C00004432C8106B0BDE8F087000000380140DA
:1017D00001468888C0F308007047C1F30802828080
:1017E000704700BFFEE700000FB4054B10B503A91A
:1017F000044A029800F018F810BC5DF814FB0000D1
:10180000C11900084000002002E008C8121F08C1EA
:10181000002AFAD170477047002001E001C1121F71
:10182000002AFBD1704700002DE9FF4F89B09B468D
:101830000446002506E025280BD05A460B99904710
:10184000641C6D1C20780028F5D10DB02846BDE839
:10185000F08F0027B8460122474900E0074314F8FB
:10186000013F203B02FA03F00842F7D120782E28EE
:1018700019D114F8010F47F004072A280ED06FF091
:101880002F022078A0F1300109290CD808EB88013B
:1018900002EB410100EB0108641CF2E70A98641CAA
:1018A00050F8048B0A9020780028CED0642808D005
:1018B000692806D075281ED05A460B9990476D1C92
:1018C00058E00A994FF00A0901C90A91002802DA82
:1018D00040422D2102E0390504D52B218DF820103E
:1018E000012103E0F90704D02021F7E78A4608AE7A
:1018F0000DE00021FAE70A994FF00A0901C90A919F
:10190000F7E74946FEF730FC303106F8011D0028A4
:10191000F7D1ADEB060000F12009780701D44FF0B4
:101920000108C84502DDA8EB090000E00020804660
:10193000002706E008A85A46C05D0B9990476D1C29
:101940007F1C5745F6DB04E030205A460B99904740
:101950006D1CB8F10001A8F10108F5DC05E016F8EE
:10196000010B5A460B9990476D1CB9F10001A9F182
:101970000109F4DC641C65E70928010010B56FF06B
:101980000400FFF7EFFA0A4800680A49B0FBF1F0DB
:10199000094908700846007800EB4001C1EBC0100F
:1019A0004FF6FF7101EAC0000449088010BD000035
:1019B0000000002000127A003A0000203C000020C5
:1019C00070B504460D46E1B20548FFF706FF00BFBB
:1019D00080210348FFF734FE0028F9D0204670BD6F
:1019E00000380140FFF7CAFFFEF7BCFCFFF727F8FD
:1019F000FFF72DF8FEF72CFFFFF71BF810210F2043
:101A0000FFF736F90020FFF797F800221146012072
:101A1000FFF77AF8002201210846FFF715FA0022A5
:101A200011460120FFF758F8002201210846FFF770
:101A3000F3F9002003E000216C4A1154401C1028E7
:101A4000F9DB11E06A48007870B1684800787F28B7
:101A50000AD1664840787F2806D166A0FFF7C4FE09
:101A600000206349087000E0ECE700BFBCE060487C
:101A7000007800287BD064A0FFF7B6FE5B480078B2
:101A8000654908705948407864490870574880781B
:101A9000634908705548C078624908705348007916
:101AA0006149087051484079604908704F48807911
:101AB0005F4908704D48C0795E4908704B48007A0C
:101AC0005D4908704948407A5C4908704748807A07
:101AD0005B4908704548C07A5A4908704348007B02
:101AE000594908704148407B584908703F48807BFD
:101AF0005749087000203E4908704748017855A0B2
:101B0000FFF772FE4548017859A0FFF76DFE444883
:101B100001785EA0FFF768FE4248017862A0FFF7F7
:101B200063FE4148017867A0FFF75EFE3F480178F9
:101B30006BA0FFF759FE3E48017870A0FFF754FEF6
:101B40003C48017874A0FFF74FFE3B48017879A02C
:101B5000FFF74AFE394801787DA0FFF745FE384877
:101B6000017882A0FFF740FE3648017800E011E0DE
:101B700085A0FFF739FE344801788AA0FFF734FECC
:101B8000324801788EA0FFF72FFE3148017892A0ED
:101B9000FFF72AFE22480278204801781E48007884
:101BA000FEF7B2FF214802781F4801781D480078EF
:101BB000FFF74AF9204802781E4801781C4800784F
:101BC000FEF78AFF1F4802781D4801781B480078FD
:101BD000FFF722F91D4801781B480078FFF748F805
:101BE0001B480078FEF7A8FF41E7000050000020E6
:101BF0003700002075617274206465627567207318
:101C0000746172740A00000066696C6C20696E2051
:101C1000646174610A0000002A0000202B0000208B
:101C20002C0000202D0000202E0000202F0000207E
:101C3000300000203100002032000020330000205E
:101C4000340000203500002028000020290000205A
:101C5000360000206C65667446726F6E745F454E88
:101C60002076616C7565203D202564200A00000007
:101C70006C65667446726F6E745F4449522076617B
:101C80006C7565203D202564200A00006C65667433
:101C900046726F6E745F70776D2076616C7565202B
:101CA0003D202564200A0000726967687446726FDF
:101CB0006E745F454E2076616C7565203D2025640D
:101CC000200A0000726967687446726F6E745F4420
:101CD00049522076616C7565203D202564200A00FC
:101CE000726967687446726F6E745F70776D207684
:101CF000616C7565203D202564200A006C65667462
:101D00004261636B5F454E2076616C7565203D20B6
:101D10002564200A000000006C6566744261636BF4
:101D20005F4449522076616C7565203D2025642012
:101D30000A0000006C6566744261636B5F70776DCA
:101D40002076616C7565203D202564200A00000026
:101D500072696768744261636B5F454E2076616C9F
:101D60007565203D202564200A00000072696768BF
:101D7000744261636B5F4449522076616C756520E3
:101D80003D202564200A000072696768744261631F
:101D90006B5F70776D2076616C7565203D202564E2
:101DA000200A000070697463685F616E676C65206B
:101DB00076616C7565203D202564200A00000000D6
:101DC000726F6C6C5F616E676C652076616C7565B7
:101DD000203D202564200A006C696768745F707775
:101DE0006D2076616C7565203D202564200A000019
:101DF000101E000800000020440000000818000821
:101E0000541E000844000020240400001818000894
:101E100000A24A04000000000000000001020304C8
:101E20000607080900000000010203040102030480
:101E300006070809020406080F0F00000000000052
:101E40000000000000000000000000000000000092
:041E5000000000008E
:0400000508000145A9
:00000001FF
